:100000000C949D000C94C5000C94C5000C94C50084
:100010000C94C5000C94C5000C94C5000C94C5004C
:100020000C94C5000C94C5000C94C5000C94C5003C
:100030000C94C5000C94C5000C94C5000C94C5002C
:100040000C94B4040C94C5000C9482040C945C04CD
:100050000C94C5000C94C5000C94C5000C94C5000C
:100060000C94C5000C94C5000000000800020100BB
:100070000003040700000000000000007E306D79DE
:10008000335B5F707F7B771F0D3D4F4700000000A3
:100090000000000000000000000000000000000060
:1000A0000000000000000000800180007E306D79BB
:1000B000335B5F707F7B00000000000000771F0D46
:1000C0003D4F4700370000000E00000067000000B1
:1000D00000000000000000000000000800771F0D75
:1000E0003D4F4700370000000E00151D670000005F
:1000F0000000000000000000000000000000000000
:10010000250028002B0000000000240027002A0002
:1001100004040404040404040202020202020303AD
:1001200003030303010204081020408001020408B5
:100130001020010204081020FE0411241FBECFEF7E
:10014000D8E0DEBFCDBF22E0AEE4B1E001C01D9239
:10015000A236B207E1F711E0A0E0B1E0E4E7FAE18E
:1001600002C005900D92AE34B107D9F710E0CDE989
:10017000D0E004C02197FE010E941D0BCC39D107AD
:10018000C9F70E94BD050C94380D0C94000090E056
:10019000FC01EC5DFE4F2491FC01E05FFE4F849179
:1001A000882399F090E0880F991FFC01EA5FFE4FC9
:1001B000A591B491FC01E450FF4F859194918FB7C4
:1001C000F894EC91E22BEC938FBF0895CF92DF92DD
:1001D000EF92FF920F931F93CF93DF936C017A01FD
:1001E0008B01C0E0D0E0CE15DF0589F0D8016D911C
:1001F0008D01D601ED91FC910190F081E02DC601B9
:100200000995892B11F47E0102C02196ECCFC7011C
:10021000DF91CF911F910F91FF90EF90DF90CF90E2
:100220000895089580E090E00895FC01538D448D79
:10023000252F30E0842F90E0821B930B541710F091
:10024000CF96089501970895FC01918D828D98179E
:1002500061F0828DDF01A80FB11D5D968C91928DAA
:100260009F5F9F73928F90E008958FEF9FEF0895A7
:10027000FC01918D828D981731F0828DE80FF11D70
:10028000858D90E008958FEF9FEF0895FC01918D8B
:10029000228D892F90E0805C9F4F821B91098F7384
:1002A0009927089589E691E00E94460121E0892B73
:1002B00009F420E0822F0895FC01848DDF01A80F4E
:1002C000B11DA35ABF4F2C91848D90E001968F737E
:1002D0009927848FA689B7892C93A089B1898C919D
:1002E00080648C93938D848D981306C00288F38963
:1002F000E02D80818F7D80830895EF92FF920F9390
:100300001F93CF93DF93EC0181E0888F9B8D8C8DC1
:10031000981305C0E889F989808185FD24C0F62EEF
:100320000B8D10E00F5F1F4F0F731127E02E8C8D88
:10033000E8120CC00FB607FCFACFE889F989808172
:1003400085FFF5CFCE010E945C01F1CF8B8DFE01C0
:10035000E80FF11DE35AFF4FF0820B8FEA89FB890A
:100360008081806207C0EE89FF896083E889F9890E
:1003700080818064808381E090E0DF91CF911F9144
:100380000F91FF90EF900895CF93DF93EC01888D4C
:100390008823C9F0EA89FB89808185FD05C0A88989
:1003A000B9898C9186FD0FC00FB607FCF5CF80810F
:1003B00085FFF2CFA889B9898C9185FFEDCFCE0159
:1003C0000E945C01E7CFDF91CF91089580E090E03B
:1003D000892B29F00E94520181110C94000008958C
:1003E00090E0FC01E859FF4F3491FC01EC5DFE4FB9
:1003F0002491FC01E05FFE4FE491EE2309F43BC041
:10040000332339F1333091F038F43130A9F0323000
:1004100001F584B58F7D12C0373091F03830A1F0EE
:100420003430B9F4809180008F7D03C080918000CA
:100430008F77809380000DC084B58F7784BD09C00D
:100440008091B0008F7703C08091B0008F7D809342
:10045000B000F0E0EE0FFF1FE450FF4FA591B49104
:100460008FB7F894EC91611103C020952E2301C041
:100470002E2B2C938FBF08953FB7F8948091530192
:1004800090915401A0915501B091560126B5A89BB9
:1004900005C02F3F19F00196A11DB11D3FBFBA2F16
:1004A000A92F982F8827820F911DA11DB11DBC0176
:1004B000CD0142E0660F771F881F991F4A95D1F73B
:1004C00008958F929F92AF92BF92CF92DF92EF9258
:1004D000FF926B017C010E943C024B015C01C11444
:1004E000D104E104F104F1F00E943C02DC01CB01F3
:1004F00088199909AA09BB09883E9340A105B1054D
:1005000070F321E0C21AD108E108F10888EE880EE4
:1005100083E0981EA11CB11CC114D104E104F104B4
:1005200019F7DDCFFF90EF90DF90CF90BF90AF90A5
:100530009F908F9008952F923F924F925F926F926B
:100540007F928F929F92AF92BF92CF92DF92EF9263
:10055000FF920F931F93CF93DF9300D0CDB7DEB7F9
:100560008C0149832A83660F771FF801EA5AFF4FEF
:10057000E080F180EE0CFF1CF801CF01801B910B95
:100580008E159F0514F41192F8CF8981F801E60FBA
:10059000F71F81838A818083580184E5A80EB11CEE
:1005A00060E0F50180810E94F001E00EF11E48013B
:1005B000F2E58F0E911C380180E5680E711CC701B1
:1005C000801B910B1816190624F5F701C2907F01C4
:1005D000F4013080F301208087E0482E512CD12C8B
:1005E000B601042C02C0759567950A94E2F7617014
:1005F0007727822D0E94F00161E0832D0E94F00197
:1006000060E0832D0E94F001F1E04F1A510840F79D
:10061000D6CF61E0F50180810F900F90DF91CF91EF
:100620001F910F91FF90EF90DF90CF90BF90AF9010
:100630009F908F907F906F905F904F903F902F9002
:100640000C94F00120915C0230915D0212161306A9
:1006500094F48830910578F4E9EAF0E02491FC0103
:10066000EA5FFD4F208B41E0480F60E070E086E0DC
:1006700092E00C949B02089520915C0230915D02FF
:1006800012161306B4F48830910598F4603188F49A
:10069000E62FF0E0E458FF4F2491FC01EA5FFD4FA4
:1006A000208B41E0480F60E070E086E092E00C941F
:1006B0009B020895CF92DF92EF92FF920F931F93C8
:1006C000CF93DF938C017B016B0183E0CC0CDD1CAD
:1006D0008A95E1F7C1E0D0E0FE01EC0DFD1DE00FD1
:1006E000F11F178620E04C2FB701C8010E949B0222
:1006F0002196C930D10581F7DF91CF911F910F91DC
:10070000FF90EF90DF90CF900895CF93DF93009705
:1007100079F0FC0101900020E9F73197AF01481B07
:10072000590BBC0189E691E00E94E600EC0102C091
:10073000C0E0D0E042E050E06CE171E089E691E099
:100740000E94E6008C0F9D1FDF91CF9108950E94BB
:100750001A0DEF92FF920F931F93CF93DF93EC014B
:100760007B018A0188819981009729F02A813B8148
:1007700024173507F8F4B8016F5F7F4F0E94500CC3
:10078000009759F0998388831B830A832C813D81CC
:10079000232B81F4FC0110820DC088819981009780
:1007A00011F00E94B80B198218821D821C821B82D4
:1007B0001A8207C01D830C83B701888199810E942A
:1007C000310DCE01DF91CF911F910F91FF90EF90EE
:1007D0000895CF93DF93EC016115710559F0FB018A
:1007E00001900020E9F73197AF01461B570B0E949B
:1007F000A9030CC088819981009711F00E94B80B61
:10080000198218821D821C821B821A82CE01DF91FE
:10081000CF910895BF92CF92DF92EF92FF920F9304
:100820001F93CF93DF937C016B018A01E9012417A9
:10083000350720F4812F8901C42FD82FD7011196B5
:100840001C921E9213961C921E92129715961C9241
:100850001E92149740E050E06EE171E0C7010E94E3
:10086000A903F6018481958108171907D0F48C1724
:100870009D0708F4EC01D601ED91FC911197EC0F66
:10088000FD1FB08010824D915C91BA01600F711F05
:10089000C7010E94E903D601ED91FC91EC0FFD1F09
:1008A000B082C701DF91CF911F910F91FF90EF9020
:1008B000DF90CF90BF9008951F920F920FB60F92C6
:1008C00011242F933F934F935F936F937F938F9355
:1008D0009F93AF93BF93EF93FF9389E691E00E94BC
:1008E0005C01FF91EF91BF91AF919F918F917F91AB
:1008F0006F915F914F913F912F910F900FBE0F908D
:100900001F9018951F920F920FB60F9211242F93DC
:100910008F939F93EF93FF93E0917901F0917A0188
:100920008081E0917F01F091800182FD12C0908171
:10093000809182018F5F8F7320918301821751F024
:10094000E0918201F0E0E759FE4F958F809382019C
:1009500001C08081FF91EF919F918F912F910F9016
:100960000FBE0F901F9018951F920F920FB60F9207
:1009700011242F933F938F939F93AF93BF938091B5
:100980004F0190915001A0915101B09152013091CD
:100990004E0123E0230F2D3720F40196A11DB11D38
:1009A00005C026E8230F0296A11DB11D20934E011C
:1009B00080934F0190935001A0935101B093520145
:1009C0008091530190915401A0915501B09156012D
:1009D0000196A11DB11D8093530190935401A093E2
:1009E0005501B0935601BF91AF919F918F913F9167
:1009F0002F910F900FBE0F901F901895CF93DF93FC
:100A000010926C0110926B0188EE93E0A0E0B0E0D0
:100A100080936D0190936E01A0936F01B09370016C
:100A20008EE091E090936A018093690185EC90E0FB
:100A3000909376018093750184EC90E09093780117
:100A40008093770180EC90E090937A018093790114
:100A500081EC90E090937C0180937B0182EC90E0AC
:100A600090937E0180937D0186EC90E090938001CD
:100A700080937F0110928201109283011092840171
:100A800010928501C7E0D0E0D0935702C093560280
:100A900086E090E0909359028093580285E090E0C0
:100AA00090935B0280935A0281E090E090935D0204
:100AB00080935C0287E00E94C700809158020E94E8
:100AC000C70080915A020E94C70061E080915A02DB
:100AD0000E94F001D0935702C0935602E6E1F2E083
:100AE000119282E0E635F807D9F7C0E0D0E08091B6
:100AF0005C0290915D02C817D907E4F520E04FE051
:100B0000BE0186E092E00E949B02D7FD0EC080915C
:100B10005C0290915D02C817D9073CF427E04BE0D6
:100B2000BE0186E092E00E949B0220E049E0BE0107
:100B300086E092E00E949B02D7FD1AC080915C0281
:100B400090915D02C817D9072CF4BE0186E092E0AF
:100B50000E945A0380915C0290915D02C817D907E8
:100B60003CF420E04CE0BE0186E092E00E949B0253
:100B70002196BDCFDF91CF910895CF93DF93CDB76D
:100B8000DEB7A8970FB6F894DEBF0FBECDBF78943E
:100B900084B5826084BD84B5816084BD85B5826082
:100BA00085BD85B5816085BD80916E008160809333
:100BB0006E0010928100809181008260809381009C
:100BC00080918100816080938100809180008160AC
:100BD000809380008091B10084608093B100809107
:100BE000B00081608093B00080917A00846080932F
:100BF0007A0080917A00826080937A0080917A00F6
:100C0000816080937A0080917A00806880937A0076
:100C10001092C10080915C0290915D021816190635
:100C200044F421E04CE060E070E086E092E00E9455
:100C30009B0280915C0290915D021816190644F4A3
:100C400027E04AE060E070E086E092E00E949B02CC
:100C500080915C0290915D021816190634F460E0F0
:100C600070E086E092E00E945A0388E00E94C7008C
:100C700060E088E00E94F001E0917901F0917A0152
:100C800082E08083E0917501F09176011082E0911D
:100C90007701F09178018FEC808310928101E091CF
:100CA0007D01F0917E0186E08083E0917B01F091EF
:100CB0007C01808180618083E0917B01F0917C01E7
:100CC000808188608083E0917B01F0917C0180814C
:100CD00080688083E0917B01F0917C0180818F7D31
:100CE00080838AE0C82ED12CE12CF12C8FE191E099
:100CF0000E948503609100017091010180910201C1
:100D0000909103016F3F2FEF72078207920709F45A
:100D1000D8C31CA21BA21EA21DA218A61FA22AE0B5
:100D2000AE014F5F5F4F0E94640ABE016F5F7F4F4D
:100D3000CE0183960E94E903A12CB12C2FA138A5E6
:100D4000A501BE016D5D7F4FCE0101960E940A0490
:100D50008D819E8189809A80892B41F068E271E0C3
:100D6000C4010E94280D11E0892B09F010E0C40194
:100D70000E94B80B1123A1F0809100019091010114
:100D8000A0910201B091030180589A41A640B10997
:100D90008093000190930101A0930201B09303019D
:100DA0002FA138A5A501BE016D5D7F4FCE01019633
:100DB0000E940A048D819E8189809A80892B41F04E
:100DC0006AE271E0C4010E94280D11E0892B09F04C
:100DD00010E0C4010E94B80B1123A1F08091000122
:100DE00090910101A0910201B0910301805A9F40AE
:100DF000A109B1098093000190930101A093020120
:100E0000B09303012FEFA21AB20A86E0A816B1042C
:100E100009F094CF8090000190900101A090020110
:100E2000B090030120E8821626E9920628E9A2067E
:100E3000B1040CF490C0C501B40120E836E948E9DA
:100E400050E00E94DC0ACA01B901A70196010E9484
:100E5000DC0A462E6093670170936801C501B401F6
:100E600020E432E44FE050E00E94DC0ACA01B901FC
:100E7000A70196010E94DC0A562E609365017093CB
:100E80006601C501B40120EA36E841E050E00E9465
:100E9000DC0ACA01B901A70196010E94DC0A662E8C
:100EA0006093630170936401C501B40120E137E2EE
:100EB00040E050E00E94DC0ACA01B901A701960196
:100EC0000E94DC0A762E6093610170936201C50175
:100ED000B40128EE33E040E050E00E94DC0ACA0191
:100EE000B901A70196010E94DC0A062F60935F01F9
:100EF00070936001C501B40124E630E040E050E0A9
:100F00000E94DC0ACA01B901A70196010E94DC0A0D
:100F1000162F60935D0170935E01C501B401A701B6
:100F200096010E94DC0AB62EA72ECA01B901A701BC
:100F300096010E94DC0A962E60935B0170935C011F
:100F4000C5019093590180935A01642D87E090E088
:100F50000E943C0384C080E4881682E498068FE0F7
:100F6000A806B1040CF48BC0C501B40120E432E43E
:100F70004FE050E00E94DC0ACA01B901A7019601C6
:100F80000E94DC0A562E6093650170936601C501CC
:100F9000B40120EA36E841E050E00E94DC0ACA01D0
:100FA000B901A70196010E94DC0A662E60936301D5
:100FB00070936401C501B40120E137E240E050E0E4
:100FC0000E94DC0ACA01B901A70196010E94DC0A4D
:100FD000762E6093610170936201C501B40128EE21
:100FE00033E040E050E00E94DC0ACA01B901A701E9
:100FF00096010E94DC0A062F60935F0170936001E6
:10100000C501B40124E630E040E050E00E94DC0A73
:10101000CA01B901A70196010E94DC0A162F60934C
:101020005D0170935E01C501B401A70196010E94A4
:10103000DC0AB62EA72ECA01B901A70196010E94AB
:10104000DC0A962E60935B0170935C01C50190935E
:10105000590180935A0187E090E00E942203652D98
:1010600086E090E00E943C03662D85E090E00E94BF
:101070003C03672D84E090E00E943C0346C120EAD7
:10108000821626E8920621E0A206B1040CF46DC097
:10109000C501B40120EA36E841E050E00E94DC0AD4
:1010A000CA01B901A70196010E94DC0A662E60936D
:1010B000630170936401C501B40120E137E240E0AF
:1010C00050E00E94DC0ACA01B901A70196010E9402
:1010D000DC0A762E6093610170936201C501B40150
:1010E00028EE33E040E050E00E94DC0ACA01B9017A
:1010F000A70196010E94DC0A062F60935F0170939E
:101100006001C501B40124E630E040E050E00E94F7
:10111000DC0ACA01B901A70196010E94DC0A162F58
:1011200060935D0170935E01C501B401A701960152
:101130000E94DC0AB62EA72ECA01B901A7019601AA
:101140000E94DC0A962E60935B0170935C01C501DE
:101150009093590180935A0187E090E00E94220306
:1011600086E090E00E9422037FCF80E1881687E22C
:101170009806A104B1040CF472C0C501B40120E1C9
:1011800037E240E050E00E94DC0ACA01B901A70141
:1011900096010E94DC0A662E6093610170936201E1
:1011A000C501B40128EE33E040E050E00E94DC0AC3
:1011B000CA01B901A70196010E94DC0A762E60934C
:1011C0005F0170936001C501B40124E630E040E0A6
:1011D00050E00E94DC0ACA01B901A70196010E94F1
:1011E000DC0A062F60935D0170935E01C501B401B6
:1011F000A70196010E94DC0A162FB72ECA01B90179
:10120000A70196010E94DC0AA62E60935B017093F1
:101210005C0110935901B0925A0187E090E00E945E
:10122000220386E090E00E94220385E090E00E9485
:101230002203662D84E090E00E943C03672D83E04A
:1012400090E00E943C03602F82E090E00E943C030B
:101250006A2D81E090E00E943C03612FAEC0C50181
:10126000B40128EE821623E09206A104B1040CF426
:101270005DC028EE33E040E050E00E94DC0ACA0185
:10128000B901A70196010E94DC0A062F60935F0155
:1012900070936001C501B40124E630E040E050E005
:1012A0000E94DC0ACA01B901A70196010E94DC0A6A
:1012B000162F60935D0170935E01C501B401A70113
:1012C00096010E94DC0AB62EA72ECA01B901A70119
:1012D00096010E94DC0A962E60935B0170935C017C
:1012E000C5019093590180935A0187E090E00E94D4
:1012F000220386E090E00E94220385E090E00E94B5
:10130000220384E090E00E942203602F83E090E0BB
:101310000E943C03612F82E090E00E943C03692D13
:1013200081E090E00E943C036B2D47C024E630E052
:1013300040E050E00E94DC0ACA01B901A701960111
:101340000E94DC0A162F60935D0170935E01C50157
:10135000B401A70196010E94DC0A062FB72ECA012C
:10136000B901A70196010E94DC0AA62E60935B01D9
:1013700070935C0100935901B0925A0187E090E0AC
:101380000E94220386E090E00E94220385E090E024
:101390000E94220384E090E00E94220383E090E018
:1013A0000E942203612F82E090E00E943C036A2D9C
:1013B00081E090E00E943C03602F80E090E00E947A
:1013C0003C03009157011091580103361105B9F4FF
:1013D0008FE291E00E94850361E088E00E94F001C5
:1013E00062E070E080E090E00E94610260E088E0EE
:1013F0000E94F001109258011092570110C062E053
:1014000070E080E090E00E9461020F5F1F4F109338
:1014100058010093570189E391E00E9485034090B1
:10142000000150900101609002017090030141148D
:1014300051046104710491F08BA19CA10E94B80B2E
:1014400081E0481A510861087108409200015092E9
:10145000010160920201709203014CCC08E010E09F
:1014600061E088E00E94F001A12CB12C60E0C50190
:101470000E943C032FEFA21AB20A88E0A816B1041A
:10148000A9F764E670E080E090E00E94610260E00D
:1014900088E00E94F001A12CB12CC5010E9422031A
:1014A0002FEFA21AB20A88E0A816B104B1F76CE2D5
:1014B00071E080E090E00E9461020150110981F624
:1014C000BBCF0E94E60112CCBB272A3051F49923EE
:1014D00042F4BDE290958095709561957F4F8F4F56
:1014E0009F4F0C94740ABB27FA01A62F621771054F
:1014F00081059105330B30FB66F0AA27660F771F35
:10150000881F991FAA1FA21710F0A21B63953850BD
:10151000A9F7A05DAA3308F0A95DA19336F7B11130
:10152000B1931082CA010C94950ADC01FC01672F6B
:1015300071917723E1F7329704C07C916D937083AA
:101540006291AE17BF07C8F308952F923F924F9252
:101550005F926F927F928F929F92AF92BF92CF9243
:10156000DF92EF92FF920F931F93CF93DF93CDB74C
:10157000DEB7CA1BDB0B0FB6F894DEBF0FBECDBFC4
:1015800009942A88398848885F846E847D848C8495
:101590009B84AA84B984C884DF80EE80FD800C819E
:1015A0001B81AA81B981CE0FD11D0FB6F894DEBF81
:1015B0000FBECDBFED010895052E97FB1EF40094DC
:1015C0000E94F30A57FD07D00E94FB0A07FC03D0D4
:1015D0004EF40C94F30A50954095309521953F4F69
:1015E0004F4F5F4F089590958095709561957F4F0F
:1015F0008F4F9F4F0895A1E21A2EAA1BBB1BFD011E
:101600000DC0AA1FBB1FEE1FFF1FA217B307E407E1
:10161000F50720F0A21BB30BE40BF50B661F771F39
:10162000881F991F1A9469F7609570958095909519
:101630009B01AC01BD01CF010895EE0FFF1F059086
:10164000F491E02D0994CF93DF938230910510F44B
:1016500082E090E0E0916002F091610220E030E0F1
:10166000C0E0D0E0309711F140815181481759070F
:10167000C0F04817590761F482819381209719F0CF
:101680009B838A832BC0909361028093600226C063
:101690002115310519F04217530718F49A01BE01BC
:1016A000DF01EF010280F381E02DDCCF2115310550
:1016B00009F1281B390B2430310590F412968D91D5
:1016C0009C9113976115710521F0FB01938382832F
:1016D00004C09093610280936002FD01329644C081
:1016E000FD01E20FF31F81939193225031092D9355
:1016F0003C933AC020915E0230915F02232B41F46B
:10170000209106013091070130935F0220935E0221
:1017100020910401309105012115310541F42DB7C7
:101720003EB74091080150910901241B350BE0910F
:101730005E02F0915F02E217F307A0F42E1B3F0B4D
:101740002817390778F0AC014E5F5F4F2417350733
:1017500048F04E0F5F1F50935F0240935E028193EB
:10176000919302C0E0E0F0E0CF01DF91CF910895C6
:101770000F931F93CF93DF93009709F48CC0FC0164
:10178000329713821282009160021091610201155A
:10179000110581F420813181820F931F20915E0217
:1017A00030915F022817390779F5F0935F02E093D3
:1017B0005E0271C0D80140E050E0AE17BF0750F4A0
:1017C00012962D913C911397AD012115310509F128
:1017D000D901F3CF9D01DA013383228360817181C6
:1017E000860F971F8217930769F4EC0128813981CE
:1017F000260F371F2E5F3F4F318320838A819B81C5
:1018000093838283452B29F4F0936102E093600275
:1018100042C01396FC93EE931297ED0149915991B2
:101820009E01240F351FE217F30771F48081918127
:10183000840F951F029611969C938E9382819381BB
:1018400013969C938E931297E0E0F0E0D8011296E5
:101850008D919C911397009719F0F8018C01F6CFA8
:101860008D919C9198012E5F3F4F820F931F209185
:101870005E0230915F022817390769F4309729F426
:10188000109261021092600202C0138212821093C1
:101890005F0200935E02DF91CF911F910F91089537
:1018A000A0E0B0E0E6E5FCE00C94A90AEC010097AA
:1018B00021F4CB010E94230BB8C0FC01E60FF71FF7
:1018C0009C0122503109E217F30708F4ACC0D9019A
:1018D0000D911C91119706171707B0F005301105EF
:1018E00008F49FC0C80104978617970708F499C0A9
:1018F00002501109061B170B019311936D937C93F2
:10190000CF010E94B80B8DC05B01A01AB10A4C0137
:10191000800E911EA0916002B091610240E050E003
:10192000E12CF12C109709F44AC0A815B905D1F59E
:101930006D907C901197630182E0C80ED11CCA148F
:10194000DB0480F1A3014A195B096A0182E0C80E39
:10195000D11C1296BC9012971396AC91B5E0CB16A1
:10196000D10440F0B282A38351834083D9016D93A7
:101970007C930AC00E5F1F4FC301800F911FF901B6
:1019800091838083EB2DFA2FE114F10431F0D7011C
:101990001396FC93EE93129744C0F0936102E09388
:1019A00060023FC08D919C9111974817590708F428
:1019B000AC017D0112960D90BC91A02DB3CF80910A
:1019C0005E0290915F0288159905E1F4461757076A
:1019D000C8F48091040190910501009741F48DB7FE
:1019E0009EB74091080150910901841B950BE8179F
:1019F000F907C8F4F0935F02E0935E02F901718386
:101A000060830FC0CB010E94230B7C01009759F02B
:101A1000A801BE010E941F0DCE010E94B80BC70194
:101A200004C0CE0102C080E090E0CDB7DEB7EEE0AA
:101A30000C94C50A81E090E0F8940C94380DFB01F9
:101A4000DC0102C001900D9241505040D8F708953A
:101A5000FB01DC018D91019080190110D9F3990BE4
:101A60000895FB01DC0101900D920020E1F708953B
:041A7000F894FFCF18
:101A7400E8396E01000062028000000000007D0170
:101A8400E6001501C4014601240138010D0A004392
:101A94006F6D65C3A76F750039393939393900421B
:101AA400757A7A6572206F6E0042757A7A65722053
:0E1AB400696E6372656D656E7461646F00002B
:107E0000112484B714BE81FFF0D085E080938100F7
:107E100082E08093C00088E18093C10086E0809377
:107E2000C20080E18093C4008EE0C9D0259A86E02C
:107E300020E33CEF91E0309385002093840096BBD3
:107E4000B09BFECF1D9AA8958150A9F7CC24DD24C4
:107E500088248394B5E0AB2EA1E19A2EF3E0BF2EE7
:107E6000A2D0813461F49FD0082FAFD0023811F036
:107E7000013811F484E001C083E08DD089C08234E0
:107E800011F484E103C0853419F485E0A6D080C0E4
:107E9000853579F488D0E82EFF2485D0082F10E0AE
:107EA000102F00270E291F29000F111F8ED06801E7
:107EB0006FC0863521F484E090D080E0DECF843638
:107EC00009F040C070D06FD0082F6DD080E0C81688
:107ED00080E7D80618F4F601B7BEE895C0E0D1E017
:107EE00062D089930C17E1F7F0E0CF16F0E7DF06D8
:107EF00018F0F601B7BEE89568D007B600FCFDCFD4
:107F0000A601A0E0B1E02C9130E011968C91119780
:107F100090E0982F8827822B932B1296FA010C0160
:107F200087BEE89511244E5F5F4FF1E0A038BF0790
:107F300051F7F601A7BEE89507B600FCFDCF97BE46
:107F4000E89526C08437B1F42ED02DD0F82E2BD052
:107F50003CD0F601EF2C8F010F5F1F4F84911BD097
:107F6000EA94F801C1F70894C11CD11CFA94CF0C13
:107F7000D11C0EC0853739F428D08EE10CD085E9AC
:107F80000AD08FE07ACF813511F488E018D01DD067
:107F900080E101D065CF982F8091C00085FFFCCF94
:107FA0009093C60008958091C00087FFFCCF809118
:107FB000C00084FD01C0A8958091C6000895E0E648
:107FC000F0E098E1908380830895EDDF803219F02E
:107FD00088E0F5DFFFCF84E1DECF1F93182FE3DFCA
:107FE0001150E9F7F2DF1F91089580E0E8DFEE27F6
:047FF000FF270994CA
:027FFE00040479
:0400000300007E007B
:00000001FF
