:1000000047C1000074C1000072C1000070C100004F
:100010006EC100006CC100006AC1000068C1000030
:1000200066C1000064C1000062C1000060C1000040
:100030005EC100005CC100005AC1000058C1000050
:1000400056C1000054C1000052C1000050C1000060
:100050004EC100004CC100004AC10000D1C30000E5
:1000600046C1000044C1000042C1000040C1000080
:100070003EC100003CC100003AC1000038C1000090
:1000800036C1000034C1000032C1000030C10000A0
:100090002EC100002CC100002AC1000028C10000B0
:1000A00026C1000024C1000022C1000020C10000C0
:1000B0001EC100001CC100001AC1000018C10000D0
:1000C00016C1000014C1000012C1000010C10000E0
:1000D0000EC100000CC100000AC1000008C10000F0
:1000E00006C10000C501C801B701BB01BF01FF0186
:1000F000CC01D001D601DA01DE01E401E801EC0116
:10010000FF01F201F601FA0100000A0B02090C0DD1
:100110000E080703040100000000000000000000BA
:1001200000000000000000000000000000000000CF
:10013000000000001211100000000000000000008C
:1001400000000000000000000000000000007E3001
:100150006D79335B5F707F7B771F0D3D4F470000EC
:10016000000000000000000000000000000000008F
:1001700000000000000000000000800180007E30D0
:100180006D79335B5F707F7B0000000000000077BB
:100190001F0D3D4F4700370000000E0000006700B4
:1001A00000000000000000000000000000080077D0
:1001B0001F0D3D4F4700370000000E00151D670062
:1001C000000000000000000000000000000000002F
:1001D0002200250028002B002E00310034000201EF
:1001E0000000050108010B01000021002400270088
:1001F0002A002D0030003300010100000401070136
:100200000A0105050505070508080808020202029B
:100210000A0A0808040404040101010101010101A2
:100220000303030303030303040707070C0C0C0C6D
:100230000C0C0C0C02020202060606060606060656
:100240000B0B0B0B0B0B0B0B0102102020080810E3
:100250002040102040800201020108040201010236
:10026000040810204080804020100804020180040F
:10027000020180402010080402010804020101026A
:1002800004081020408001020408102040807708F4
:1002900011241FBECFEFD1E2DEBFCDBF00E00CBF07
:1002A00022E0A2E1B2E001C01D92A938B207E1F755
:1002B00012E0A0E0B2E0E8E3F7E100E00BBF02C02B
:1002C00007900D92A231B107D9F711E0C8E4D1E04F
:1002D00000E005C021970109802FFE01D7D7C73460
:1002E000D10780E00807B1F7D5D20C949A0B88CEDD
:1002F00090E0FC01E85BFD4F2491FC01EE5FFD4FB7
:100300008491882399F090E0880F991FFC01E851AF
:10031000FE4FA591B491FC01E253FE4F859194915B
:100320008FB7F894EC91E22BEC938FBF0895362FA2
:1003300090E0FC01E85FFE4F4491FC01E85BFD4F5B
:100340002491FC01EE5FFD4F9491992309F46AC05A
:10035000442309F454C050E0FA013197E231F10529
:1003600008F04DC08827EE58FF4F8F4F8FC7809100
:1003700080008F7707C0809180008F7D03C08091BF
:100380008000877F809380003AC084B58F7702C059
:1003900084B58F7D84BD33C08091B0008F7703C05A
:1003A0008091B0008F7D8093B00029C08091900033
:1003B0008F7707C0809190008F7D03C0809190005F
:1003C000877F809390001BC08091A0008F7707C02B
:1003D0008091A0008F7D03C08091A000877F8093D3
:1003E000A0000DC0809120018F7707C0809120016F
:1003F0008F7D03C080912001877F80932001E92FAA
:10040000F0E0EE0FFF1FE253FE4FA591B4918FB7BE
:10041000F894EC91311103C020952E2301C02E2BAE
:100420002C938FBF08953FB7F89480911702909155
:100430001802A0911902B0911A0226B5A89B05C016
:100440002F3F19F00196A11DB11D3FBFBA2FA92F53
:10045000982F8827820F911DA11DB11DBC01CD01D0
:1004600042E0660F771F881F991F4A95D1F70895BC
:100470008F929F92AF92BF92CF92DF92EF92FF92B4
:100480006B017C01D0DF4B015C01C114D104E1049C
:10049000F104E9F0C8DFDC01CB0188199909AA0948
:1004A000BB09883E9340A105B10578F321E0C21A4B
:1004B000D108E108F10888EE880E83E0981EA11C9F
:1004C000B11CC114D104E104F10421F7DECFFF9087
:1004D000EF90DF90CF90BF90AF909F908F90089556
:1004E0002F923F924F925F926F927F928F929F9244
:1004F000AF92BF92CF92DF92EF92FF920F931F9332
:10050000CF93DF931F921F92CDB7DEB78C01498343
:100510002A83660F771FF801EA5AFF4FE080F180C7
:10052000EE0CFF1CF801CF01801B910B8E159F056F
:1005300014F41192F8CF8981F801E60FF71F818337
:100540008A818083580184E5A80EB11C60E0F50122
:100550008081EDDEE00EF11E4801F2E58F0E911C68
:10056000380180E5680E711CC701801B910B1816BD
:1005700019060CF5F701C2907F01F4013080F301F8
:10058000208087E0482E512CD12CB601042C02C0CB
:10059000759567950A94E2F761707727822DC7DE1B
:1005A00061E0832DC4DE60E0832DC1DEF1E04F1AEF
:1005B000510858F7D9CF61E0F50180810F900F9075
:1005C000DF91CF911F910F91FF90EF90DF90CF902F
:1005D000BF90AF909F908F907F906F905F904F9063
:1005E0003F902F90A4CE2091830230918402121666
:1005F00013068CF48830910570F4EBE7F1E0249158
:10060000FC01E35DFD4F208B41E0480F60E070E0AE
:100610008DE292E065CF08952091830230918402AB
:1006200012161306ACF48830910590F4603180F412
:10063000E62FF0E0E25BFE4F2491FC01E35DFD4F0D
:10064000208B41E0480F60E070E08DE292E048CFFF
:100650000895CF92DF92EF92FF920F931F93CF9363
:10066000DF938C017B016B0183E0CC0CDD1C8A9550
:10067000E1F7C1E0D0E0FE01EC0DFD1DE00FF11F40
:10068000178620E04C2FB701C8012ADF2196C93018
:10069000D10589F7DF91CF911F910F91FF90EF90D6
:1006A000DF90CF900895EF92FF920F931F93CF9317
:1006B000DF93EC017B018A0188819981009729F001
:1006C0002A813B8124173507E8F4B8016F5F7F4F1B
:1006D00034D7009759F0998388831B830A832C8130
:1006E0003D81232B79F4FC0110820CC08881998113
:1006F000009709F08AD6198218821D821C821B82FB
:100700001A8207C01D830C83B701888199810E94DA
:10071000930BCE01DF91CF911F910F91FF90EF903E
:100720000895CF93DF93EC016115710551F0FB0142
:1007300001900020E9F73197AF01461B570BB3DF5B
:100740000BC088819981009709F05FD619821882C1
:100750001D821C821B821A82CE01DF91CF910895E7
:10076000BF92CF92DF92EF92FF920F931F93CF939E
:10077000DF937C016B018A01E9012417350720F41E
:10078000812F8901C42FD82FD70111961C921E9258
:1007900013961C921E92129715961C921E921497F5
:1007A00040E050E060E172E0C7017DDFF601848146
:1007B000958108171907C8F48C179D0708F4EC01F8
:1007C000D601ED91FC911197EC0FFD1FB0801082C6
:1007D0004D915C91BA01600F711FC701A2DFD60174
:1007E000ED91FC91EC0FFD1FB082C701DF91CF911D
:1007F0001F910F91FF90EF90DF90CF90BF900895E1
:100800001F920F920FB60F9211242F933F938F9345
:100810009F93AF93BF938091130290911402A09184
:100820001502B09116023091120223E0230F2D37EA
:1008300020F40196A11DB11D05C026E8230F0296E4
:10084000A11DB11D209312028093130290931402F4
:10085000A0931502B093160280911702909118028E
:10086000A0911902B0911A020196A11DB11D8093A9
:10087000170290931802A0931902B0931A02BF9125
:10088000AF919F918F913F912F910F900FBE0F903D
:100890001F901895CF93DF93CDB7DEB7A8970FB60B
:1008A000F894DEBF0FBECDBF789484B5826084BD5E
:1008B00084B5816084BD85B5826085BD85B5816064
:1008C00085BD80916E00816080936E0010928100E2
:1008D000809181008260809381008091810081609D
:1008E000809381008091800081608093800080915E
:1008F000B10084608093B1008091B00081608093EA
:10090000B00080919100826080939100809191006D
:10091000816080939100809190008160809390002D
:100920008091A10082608093A1008091A1008160EC
:100930008093A1008091A00081608093A0008091AD
:100940002101826080932101809121018160809347
:1009500021018091200181608093200180917A00A3
:10096000846080937A0080917A00826080937A001C
:1009700080917A00816080937A0080917A0080680B
:1009800080937A001092C10080918302909184023A
:10099000181619063CF421E04CE060E070E08DE2AE
:1009A00092E09EDD809183029091840218161906D0
:1009B0003CF427E04AE060E070E08DE292E090DDF8
:1009C0008091830290918402181619062CF460E03D
:1009D00070E08DE292E03DDE88E08ADC60E088E055
:1009E000A6DC8AE0C82ED12CE12CF12C609100020B
:1009F0007091010280910202909103026F3F2FEFEC
:100A000072078207920709F46AC31CA21BA21EA2E6
:100A10001DA218A61FA22AE0AE014F5F5F4FDBD3D5
:100A2000BE016F5F7F4FCE0183967BDEA12CB12C80
:100A30002FA138A5A501BE016D5D7F4FCE010196A6
:100A40008FDE8D819E8189809A80892B39F06AE0C2
:100A500072E0C4015FD611E0892B09F010E0C401F7
:100A6000D4D41123A1F08091000290910102A091B1
:100A70000202B091030280589A41A640B1098093C6
:100A8000000290930102A0930202B09303022FA1EF
:100A900038A5A501BE016D5D7F4FCE01019660DED8
:100AA0008D819E8189809A80892B39F06CE072E07B
:100AB000C40130D611E0892B09F010E0C401A5D49F
:100AC0001123A1F08091000290910102A0910202F5
:100AD000B0910302805A9F40A109B109809300029E
:100AE00090930102A0930202B09303022FEFA21A87
:100AF000B20A86E0A816B10409F09ACF80900002ED
:100B000090900102A0900202B090030220E88216A9
:100B100026E9920628E9A206B1040CF481C0C501B9
:100B2000B40120E836E948E950E094D3CA01B9019C
:100B3000A70196018FD3462E60932B0270932C024F
:100B4000C501B40120E432E44FE050E083D3CA0190
:100B5000B901A70196017ED3562E609329027093A6
:100B60002A02C501B40120EA36E841E050E072D320
:100B7000CA01B901A70196016DD3662E60932702C1
:100B800070932802C501B40120E137E240E050E053
:100B900061D3CA01B901A70196015CD3762E609397
:100BA000250270932602C501B40128EE33E040E02F
:100BB00050E050D3CA01B901A70196014BD3062FCB
:100BC0006093230270932402C501B40124E630E04F
:100BD00040E050E03FD3CA01B901A70196013AD3E2
:100BE000162F6093210270932202C501B401A70160
:100BF000960130D3B62EA72ECA01B901A7019601DE
:100C000029D3962E60931F0270932002C501909302
:100C10001D0280931E02642D87E090E0FDDC77C00A
:100C200080E4881682E498068FE0A806B1040CF4EC
:100C30007BC0C501B40120E432E44FE050E00AD3A8
:100C4000CA01B901A701960105D3562E6093290266
:100C500070932A02C501B40120EA36E841E050E071
:100C6000F9D2CA01B901A7019601F4D2662E6093A8
:100C7000270270932802C501B40120E137E240E069
:100C800050E0E8D2CA01B901A7019601E3D2762E5D
:100C90006093250270932602C501B40128EE33E06B
:100CA00040E050E0D7D2CA01B901A7019601D2D2E3
:100CB000062F6093230270932402C501B40124E639
:100CC00030E040E050E0C6D2CA01B901A701960168
:100CD000C1D2162F6093210270932202C501B40184
:100CE000A7019601B7D2B62EA72ECA01B901A70156
:100CF0009601B0D2962E60931F0270932002C50118
:100D000090931D0280931E0287E090E06CDC652DBD
:100D100086E090E081DC662D85E090E07DDC672D4B
:100D200084E090E079DC21C120EA821626E8920670
:100D300021E0A206B1040CF461C0C501B40120EAAF
:100D400036E841E050E086D2CA01B901A701960118
:100D500081D2662E6093270270932802C501B401E8
:100D600020E137E240E050E075D2CA01B901A701A5
:100D7000960170D2762E6093250270932602C501EB
:100D8000B40128EE33E040E050E064D2CA01B9017A
:100D9000A70196015FD2062F60932302709324026D
:100DA000C501B40124E630E040E050E053D2CA016E
:100DB000B901A70196014ED2162F609321027093BC
:100DC0002202C501B401A701960144D2B62EA72E76
:100DD000CA01B901A70196013DD2962E60931F0268
:100DE00070932002C50190931D0280931E0287E03C
:100DF00090E0F9DB86E090E0F6DB8DCF80E18816AD
:100E000087E29806A104B1040CF463C0C501B401E3
:100E100020E137E240E050E01DD2CA01B901A7014C
:100E2000960118D2662E6093250270932602C501A2
:100E3000B40128EE33E040E050E00CD2CA01B90121
:100E4000A701960107D2762E6093230270932402A5
:100E5000C501B40124E630E040E050E0FBD1CA0116
:100E6000B901A7019601F6D1062F60932102709374
:100E70002202C501B401A7019601ECD1162FB72EAD
:100E8000CA01B901A7019601E5D1A62E60931F0200
:100E90007093200210931D02B0921E0287E090E032
:100EA000A2DB86E090E09FDB85E090E09CDB662D96
:100EB00084E090E0B1DB672D83E090E0ADDB602F54
:100EC00082E090E0A9DB6A2D81E090E0A5DB612F54
:100ED00096C0C501B40128EE821623E09206A10453
:100EE000B1040CF450C028EE33E040E050E0B2D141
:100EF000CA01B901A7019601ADD1062F6093230263
:100F000070932402C501B40124E630E040E050E0D3
:100F1000A1D1CA01B901A70196019CD1162F6093F6
:100F2000210270932202C501B401A701960192D15A
:100F3000B62EA72ECA01B901A70196018BD1962E14
:100F400060931F0270932002C50190931D0280934D
:100F50001E0287E090E047DB86E090E044DB85E01E
:100F600090E041DB84E090E03EDB602F83E090E0A6
:100F700053DB612F82E090E04FDB692D81E090E050
:100F80004BDB6B2D3CC024E630E040E050E062D10A
:100F9000CA01B901A70196015DD1162F6093210204
:100FA00070932202C501B401A701960153D1062F07
:100FB000B72ECA01B901A70196014CD1A62E6093A4
:100FC0001F027093200200931D02B0921E0287E060
:100FD00090E009DB86E090E006DB85E090E003DB53
:100FE00084E090E000DB83E090E0FDDA612F82E0B6
:100FF00090E012DB6A2D81E090E00EDB602F80E054
:1010000090E00ADB00911B0210911C0203361105CF
:1010100081F461E088E08BD969E070E080E090E0E5
:1010200027DA60E088E083D910921C0210921B023C
:101030000BC069E070E080E090E01ADA0F5F1F4FAC
:1010400010931C0200931B0240900002509001027A
:101050006090020270900302411451046104710413
:1010600089F08BA19CA1D1D181E0481A5108610877
:101070007108409200025092010260920202709246
:101080000302B4CC08E010E061E088E050D9A12C64
:10109000B12C60E0C501C0DA2FEFA21AB20A88E0D5
:1010A000A816B104B1F764E670E080E090E0E0D902
:1010B00060E088E03CD9A12CB12CC50194DA2FEF77
:1010C000A21AB20A88E0A816B104B9F76CE271E07E
:1010D00080E090E0CDD901501109B1F6C2CF80E097
:1010E00090E0892B09F482CC0E9400007FCCCF9342
:1010F000DF93C7E0D0E0D0937E02C0937D0286E00C
:1011000090E09093800280937F0285E090E090933E
:1011100082028093810281E090E090938402809328
:10112000830287E0E5D880917F02E2D88091810236
:10113000DFD861E080918102FAD8D0937E02C0931B
:101140007D02EDE3F2E0119282E0ED37F807D9F786
:10115000C0E0D0E08091830290918402C817D90743
:10116000BCF520E04FE0BE018DE292E0B9D9D7FD99
:101170000DC08091830290918402C817D90734F47E
:1011800027E04BE0BE018DE292E0AAD920E049E0E1
:10119000BE018DE292E0A4D9D7FD18C080918302F0
:1011A00090918402C817D90724F4BE018DE292E021
:1011B00050DA8091830290918402C817D90734F4E1
:1011C00020E04CE0BE018DE292E08AD92196C2CFA8
:1011D000DF91CF910895BB272A3051F4992342F42F
:1011E000BDE290958095709561957F4F8F4F9F4F91
:1011F00001C0BB27FA01A62F621771058105910571
:10120000330B30FB66F0AA27660F771F881F991FE4
:10121000AA1FA21710F0A21B63953850A9F7A05D72
:10122000AA3308F0A95DA19336F7B111B1931082EA
:10123000CA0100C0DC01FC01672F71917723E1F73F
:10124000329704C07C916D9370836291AE17BF0793
:10125000C8F30895052E97FB16F400940FD057FDA0
:1012600005D01CD007FC02D046F408C0509540952C
:10127000309521953F4F4F4F5F4F08959095809542
:10128000709561957F4F8F4F9F4F0895EE0FFF1F11
:10129000881F8BBF0790F691E02D1994A1E21A2EBA
:1012A000AA1BBB1BFD010DC0AA1FBB1FEE1FFF1F0A
:1012B000A217B307E407F50720F0A21BB30BE40B5A
:1012C000F50B661F771F881F991F1A9469F76095A1
:1012D0007095809590959B01AC01BD01CF0108955B
:1012E000CF93DF938230910510F482E090E0E0919B
:1012F0008702F091880220E030E0C0E0D0E0309733
:1013000011F14081518148175907C0F0481759071A
:1013100061F482819381209719F09B838A832BC08B
:10132000909388028093870226C02115310519F019
:101330004217530718F49A01BE01DF01EF01028042
:10134000F381E02DDCCF2115310509F1281B390B84
:101350002430310590F412968D919C91139761156C
:10136000710521F0FB019383828304C0909388026E
:1013700080938702FD01329644C0FD01E20FF31F06
:1013800081939193225031092D933C933AC020913F
:10139000850230918602232B41F420910602309180
:1013A0000702309386022093850220910402309137
:1013B00005022115310541F42DB73EB740910802D1
:1013C00050910902241B350BE0918502F0918602B1
:1013D000E217F307A0F42E1B3F0B2817390778F00C
:1013E000AC014E5F5F4F2417350748F04E0F5F1F6B
:1013F00050938602409385028193919302C0E0E06E
:10140000F0E0CF01DF91CF9108950F931F93CF9319
:10141000DF93009709F48CC0FC013297138212828B
:1014200000918702109188020115110581F4208135
:101430003181820F931F20918502309186022817F7
:10144000390779F5F0938602E093850271C0D801DF
:1014500040E050E0AE17BF0750F412962D913C913A
:101460001397AD012115310509F1D901F3CF9D0184
:10147000DA013383228360817181860F971F82177F
:10148000930769F4EC0128813981260F371F2E5FFD
:101490003F4F318320838A819B8193838283452BB5
:1014A00029F4F0938802E093870242C01396FC93DC
:1014B000EE931297ED01499159919E01240F351F2A
:1014C000E217F30771F480819181840F951F0296D2
:1014D00011969C938E938281938113969C938E9305
:1014E0001297E0E0F0E0D80112968D919C9113974D
:1014F000009719F0F8018C01F6CF8D919C9198011D
:101500002E5F3F4F820F931F2091850230918602FC
:101510002817390769F4309729F41092880210923D
:10152000870202C013821282109386020093850202
:10153000DF91CF911F910F9108956F927F928F92BB
:101540009F92AF92BF92CF92DF92EF92FF920F9352
:101550001F93CF93DF93EC01009781F4CB01DF91D0
:10156000CF911F910F91FF90EF90DF90CF90BF90A0
:10157000AF909F908F907F906F90B2CEFC01E60F5E
:10158000F71F9C0122503109E217F30708F4A8C0A5
:10159000D9010D911C91119706171707A8F0053076
:1015A000110508F49BC0C80104978617970708F433
:1015B00095C002501109061B170B019311936D93EF
:1015C0007C93CF0122DF8AC05B01A01AB10A4C01D3
:1015D000800E911EA0918702B091880240E050E0F9
:1015E000E12CF12C109709F44AC0A815B905D1F5E2
:1015F0006D907C901197630182E0C80ED11CCA14D3
:10160000DB0480F1A3014A195B096A0182E0C80E7C
:10161000D11C1296BC9012971396AC91B5E0CB16E4
:10162000D10440F0B282A38351834083D9016D93EA
:101630007C930AC00E5F1F4FC301800F911FF901F9
:1016400091838083EB2DFA2FE114F10431F0D7015F
:101650001396FC93EE93129741C0F0938802E093A7
:1016600087023CC08D919C9111974817590708F447
:10167000AC017D0112960D90BC91A02DB3CF80914D
:1016800085029091860288159905E1F4461757075F
:10169000C8F48091040290910502009741F48DB73F
:1016A0009EB74091080250910902841B950BE817E0
:1016B000F907B0F4F0938602E0938502F901718393
:1016C00060830CC0CB010CDE7C01009749F0A801BF
:1016D000BE0117D0CE0199DEC70104C0CE0102C001
:1016E00080E090E0DF91CF911F910F91FF90EF90FC
:1016F000DF90CF90BF90AF909F908F907F906F9032
:101700000895FB01DC0102C001900D924150504050
:10171000D8F70895FB01DC018D910190801901102B
:10172000D9F3990B0895FB01DC0101900D92002083
:08173000E1F70895F894FFCFE2
:10173800E8396E01000089028000393939393939B0
:0217480000009F
:00000001FF
