:1000000047C1000074C1000072C1000070C100004F
:100010006EC100006CC100006AC1000068C1000030
:1000200066C1000064C1000062C1000060C1000040
:100030005EC100005CC100005AC1000058C1000050
:1000400056C1000054C1000052C1000050C1000060
:100050004EC100004CC100004AC10000D1C30000E5
:1000600046C1000044C1000042C1000040C1000080
:100070003EC100003CC100003AC1000038C1000090
:1000800036C1000034C1000032C1000030C10000A0
:100090002EC100002CC100002AC1000028C10000B0
:1000A00026C1000024C1000022C1000020C10000C0
:1000B0001EC100001CC100001AC1000018C10000D0
:1000C00016C1000014C1000012C1000010C10000E0
:1000D0000EC100000CC100000AC1000008C10000F0
:1000E00006C10000C501C801B701BB01BF01FF0186
:1000F000CC01D001D601DA01DE01E401E801EC0116
:10010000FF01F201F601FA0100000A0B02090C0DD1
:100110000E080703040100000000000000000000BA
:1001200000000000000000000000000000000000CF
:10013000000000001211100000000000000000008C
:1001400000000000000000000000000000007E3001
:100150006D79335B5F707F7B771F0D3D4F470000EC
:10016000000000000000000000000000000000008F
:1001700000000000000000000000800180007E30D0
:100180006D79335B5F707F7B0000000000000077BB
:100190001F0D3D4F4700370000000E0000006700B4
:1001A00000000000000000000000000000080077D0
:1001B0001F0D3D4F4700370000000E00151D670062
:1001C000000000000000000000000000000000002F
:1001D0002200250028002B002E00310034000201EF
:1001E0000000050108010B01000021002400270088
:1001F0002A002D0030003300010100000401070136
:100200000A0105050505070508080808020202029B
:100210000A0A0808040404040101010101010101A2
:100220000303030303030303040707070C0C0C0C6D
:100230000C0C0C0C02020202060606060606060656
:100240000B0B0B0B0B0B0B0B0102102020080810E3
:100250002040102040800201020108040201010236
:10026000040810204080804020100804020180040F
:10027000020180402010080402010804020101026A
:1002800004081020408001020408102040807708F4
:1002900011241FBECFEFD1E2DEBFCDBF00E00CBF07
:1002A00022E0A2E1B2E001C01D92A938B207E1F755
:1002B00012E0A0E0B2E0E8E3F7E100E00BBF02C02B
:1002C00007900D92A231B107D9F711E0C8E4D1E04F
:1002D00000E005C021970109802FFE01D7D7C73460
:1002E000D10780E00807B1F7D5D20C949A0B88CEDD
:1002F00090E0FC01E85BFD4F2491FC01EE5FFD4FB7
:100300008491882399F090E0880F991FFC01E851AF
:10031000FE4FA591B491FC01E253FE4F859194915B
:100320008FB7F894EC91E22BEC938FBF0895362FA2
:1003300090E0FC01E85FFE4F4491FC01E85BFD4F5B
:100340002491FC01EE5FFD4F9491992309F46AC05A
:10035000442309F454C050E0FA013197E231F10529
:1003600008F04DC08827EE58FF4F8F4F8FC7809100
:1003700080008F7707C0809180008F7D03C08091BF
:100380008000877F809380003AC084B58F7702C059
:1003900084B58F7D84BD33C08091B0008F7703C05A
:1003A0008091B0008F7D8093B00029C08091900033
:1003B0008F7707C0809190008F7D03C0809190005F
:1003C000877F809390001BC08091A0008F7707C02B
:1003D0008091A0008F7D03C08091A000877F8093D3
:1003E000A0000DC0809120018F7707C0809120016F
:1003F0008F7D03C080912001877F80932001E92FAA
:10040000F0E0EE0FFF1FE253FE4FA591B4918FB7BE
:10041000F894EC91311103C020952E2301C02E2BAE
:100420002C938FBF08953FB7F89480911702909155
:100430001802A0911902B0911A0226B5A89B05C016
:100440002F3F19F00196A11DB11D3FBFBA2FA92F53
:10045000982F8827820F911DA11DB11DBC01CD01D0
:1004600042E0660F771F881F991F4A95D1F70895BC
:100470008F929F92AF92BF92CF92DF92EF92FF92B4
:100480006B017C01D0DF4B015C01C114D104E1049C
:10049000F104E9F0C8DFDC01CB0188199909AA0948
:1004A000BB09883E9340A105B10578F321E0C21A4B
:1004B000D108E108F10888EE880E83E0981EA11C9F
:1004C000B11CC114D104E104F10421F7DECFFF9087
:1004D000EF90DF90CF90BF90AF909F908F90089556
:1004E0002F923F924F925F926F927F928F929F9244
:1004F000AF92BF92CF92DF92EF92FF920F931F9332
:10050000CF93DF931F921F92CDB7DEB78C01498343
:100510002A83660F771FF801EA5AFF4FE080F180C7
:10052000EE0CFF1CF801CF01801B910B8E159F056F
:1005300014F41192F8CF8981F801E60FF71F818337
:100540008A818083580184E5A80EB11C60E0F50122
:100550008081EDDEE00EF11E4801F2E58F0E911C68
:10056000380180E5680E711CC701801B910B1816BD
:1005700019060CF5F701C2907F01F4013080F301F8
:10058000208087E0482E512CD12CB601042C02C0CB
:10059000759567950A94E2F761707727822DC7DE1B
:1005A00061E0832DC4DE60E0832DC1DEF1E04F1AEF
:1005B000510858F7D9CF61E0F50180810F900F9075
:1005C000DF91CF911F910F91FF90EF90DF90CF902F
:1005D000BF90AF909F908F907F906F905F904F9063
:1005E0003F902F90A4CE2091830230918402121666
:1005F00013068CF48830910570F4EBE7F1E0249158
:10060000FC01E35DFD4F208B41E0480F60E070E0AE
:100610008DE292E065CF08952091830230918402AB
:1006200012161306ACF48830910590F4603180F412
:10063000E62FF0E0E25BFE4F2491FC01E35DFD4F0D
:10064000208B41E0480F60E070E08DE292E048CFFF
:100650000895CF92DF92EF92FF920F931F93CF9363
:10066000DF938C017B016B0183E0CC0CDD1C8A9550
:10067000E1F7C1E0D0E0FE01EC0DFD1DE00FF11F40
:10068000178620E04C2FB701C8012ADF2196C93018
:10069000D10589F7DF91CF911F910F91FF90EF90D6
:1006A000DF90CF900895EF92FF920F931F93CF9317
:1006B000DF93EC017B018A0188819981009729F001
:1006C0002A813B8124173507E8F4B8016F5F7F4F1B
:1006D00034D7009759F0998388831B830A832C8130
:1006E0003D81232B79F4FC0110820CC08881998113
:1006F000009709F08AD6198218821D821C821B82FB
:100700001A8207C01D830C83B701888199810E94DA
:10071000930BCE01DF91CF911F910F91FF90EF903E
:100720000895CF93DF93EC016115710551F0FB0142
:1007300001900020E9F73197AF01461B570BB3DF5B
:100740000BC088819981009709F05FD619821882C1
:100750001D821C821B821A82CE01DF91CF910895E7
:10076000BF92CF92DF92EF92FF920F931F93CF939E
:10077000DF937C016B018A01E9012417350720F41E
:10078000812F8901C42FD82FD70111961C921E9258
:1007900013961C921E92129715961C921E921497F5
:1007A00040E050E060E172E0C7017DDFF601848146
:1007B000958108171907C8F48C179D0708F4EC01F8
:1007C000D601ED91FC911197EC0FFD1FB0801082C6
:1007D0004D915C91BA01600F711FC701A2DFD60174
:1007E000ED91FC91EC0FFD1FB082C701DF91CF911D
:1007F0001F910F91FF90EF90DF90CF90BF900895E1
:100800001F920F920FB60F9211242F933F938F9345
:100810009F93AF93BF938091130290911402A09184
:100820001502B09116023091120223E0230F2D37EA
:1008300020F40196A11DB11D05C026E8230F0296E4
:10084000A11DB11D209312028093130290931402F4
:10085000A0931502B093160280911702909118028E
:10086000A0911902B0911A020196A11DB11D8093A9
:10087000170290931802A0931902B0931A02BF9125
:10088000AF919F918F913F912F910F900FBE0F903D
:100890001F901895CF93DF93CDB7DEB7A8970FB60B
:1008A000F894DEBF0FBECDBF789484B5826084BD5E
:1008B00084B5816084BD85B5826085BD85B5816064
:1008C00085BD80916E00816080936E0010928100E2
:1008D000809181008260809381008091810081609D
:1008E000809381008091800081608093800080915E
:1008F000B10084608093B1008091B00081608093EA
:10090000B00080919100826080939100809191006D
:10091000816080939100809190008160809390002D
:100920008091A10082608093A1008091A1008160EC
:100930008093A1008091A00081608093A0008091AD
:100940002101826080932101809121018160809347
:1009500021018091200181608093200180917A00A3
:10096000846080937A0080917A00826080937A001C
:1009700080917A00816080937A0080917A0080680B
:1009800080937A001092C10080918302909184023A
:10099000181619063CF421E04CE060E070E08DE2AE
:1009A00092E09EDD809183029091840218161906D0
:1009B0003CF427E04AE060E070E08DE292E090DDF8
:1009C0008091830290918402181619062CF460E03D
:1009D00070E08DE292E03DDE88E08ADC60E088E055
:1009E000A6DC8AE0C82ED12CE12CF12C609100020B
:1009F0007091010280910202909103026F3F2FEFEC
:100A000072078207920709F46AC31CA21BA21EA2E6
:100A10001DA218A61FA22AE0AE014F5F5F4FDBD3D5
:100A2000BE016F5F7F4FCE0183967BDEA12CB12C80
:100A30002FA138A5A501BE016D5D7F4FCE010196A6
:100A40008FDE8D819E8189809A80892B39F06AE0C2
:100A500072E0C4015FD611E0892B09F010E0C401F7
:100A6000D4D41123A1F08091000290910102A091B1
:100A70000202B091030280589A41A640B1098093C6
:100A8000000290930102A0930202B09303022FA1EF
:100A900038A5A501BE016D5D7F4FCE01019660DED8
:100AA0008D819E8189809A80892B39F06CE072E07B
:100AB000C40130D611E0892B09F010E0C401A5D49F
:100AC0001123A1F08091000290910102A0910202F5
:100AD000B0910302805A9F40A109B109809300029E
:100AE00090930102A0930202B09303022FEFA21A87
:100AF000B20A86E0A816B10409F09ACF80900002ED
:100B000090900102A0900202B090030220E88216A9
:100B100026E9920628E9A206B1040CF481C0C501B9
:100B2000B40120E836E948E950E094D3CA01B9019C
:100B3000A70196018FD3462E60932B0270932C024F
:100B4000C501B40120E432E44FE050E083D3CA0190
:100B5000B901A70196017ED3562E609329027093A6
:100B60002A02C501B40120EA36E841E050E072D320
:100B7000CA01B901A70196016DD3662E60932702C1
:100B800070932802C501B40120E137E240E050E053
:100B900061D3CA01B901A70196015CD3762E609397
:100BA000250270932602C501B40128EE33E040E02F
:100BB00050E050D3CA01B901A70196014BD3062FCB
:100BC0006093230270932402C501B40124E630E04F
:100BD00040E050E03FD3CA01B901A70196013AD3E2
:100BE000162F6093210270932202C501B401A70160
:100BF000960130D3B62EA72ECA01B901A7019601DE
:100C000029D3962E60931F0270932002C501909302
:100C10001D0280931E02642D87E090E0FDDC77C00A
:100C200080E4881682E498068FE0A806B1040CF4EC
:100C30007BC0C501B40120E432E44FE050E00AD3A8
:100C4000CA01B901A701960105D3562E6093290266
:100C500070932A02C501B40120EA36E841E050E071
:100C6000F9D2CA01B901A7019601F4D2662E6093A8
:100C7000270270932802C501B40120E137E240E069
:100C800050E0E8D2CA01B901A7019601E3D2762E5D
:100C90006093250270932602C501B40128EE33E06B
:100CA00040E050E0D7D2CA01B901A7019601D2D2E3
:100CB000062F6093230270932402C501B40124E639
:100CC00030E040E050E0C6D2CA01B901A701960168
:100CD000C1D2162F6093210270932202C501B40184
:100CE000A7019601B7D2B62EA72ECA01B901A70156
:100CF0009601B0D2962E60931F0270932002C50118
:100D000090931D0280931E0287E090E06CDC652DBD
:100D100086E090E081DC662D85E090E07DDC672D4B
:100D200084E090E079DC21C120EA821626E8920670
:100D300021E0A206B1040CF461C0C501B40120EAAF
:100D400036E841E050E086D2CA01B901A701960118
:100D500081D2662E6093270270932802C501B401E8
:100D600020E137E240E050E075D2CA01B901A701A5
:100D7000960170D2762E6093250270932602C501EB
:100D8000B40128EE33E040E050E064D2CA01B9017A
:100D9000A70196015FD2062F60932302709324026D
:100DA000C501B40124E630E040E050E053D2CA016E
:100DB000B901A70196014ED2162F609321027093BC
:100DC0002202C501B401A701960144D2B62EA72E76
:100DD000CA01B901A70196013DD2962E60931F0268
:100DE00070932002C50190931D0280931E0287E03C
:100DF00090E0F9DB86E090E0F6DB8DCF80E18816AD
:100E000087E29806A104B1040CF463C0C501B401E3
:100E100020E137E240E050E01DD2CA01B901A7014C
:100E2000960118D2662E6093250270932602C501A2
:100E3000B40128EE33E040E050E00CD2CA01B90121
:100E4000A701960107D2762E6093230270932402A5
:100E5000C501B40124E630E040E050E0FBD1CA0116
:100E6000B901A7019601F6D1062F60932102709374
:100E70002202C501B401A7019601ECD1162FB72EAD
:100E8000CA01B901A7019601E5D1A62E60931F0200
:100E90007093200210931D02B0921E0287E090E032
:100EA000A2DB86E090E09FDB85E090E09CDB662D96
:100EB00084E090E0B1DB672D83E090E0ADDB602F54
:100EC00082E090E0A9DB6A2D81E090E0A5DB612F54
:100ED00096C0C501B40128EE821623E09206A10453
:100EE000B1040CF450C028EE33E040E050E0B2D141
:100EF000CA01B901A7019601ADD1062F6093230263
:100F000070932402C501B40124E630E040E050E0D3
:100F1000A1D1CA01B901A70196019CD1162F6093F6
:100F2000210270932202C501B401A701960192D15A
:100F3000B62EA72ECA01B901A70196018BD1962E14
:100F400060931F0270932002C50190931D0280934D
:100F50001E0287E090E047DB86E090E044DB85E01E
:100F600090E041DB84E090E03EDB602F83E090E0A6
:100F700053DB612F82E090E04FDB692D81E090E050
:100F80004BDB6B2D3CC024E630E040E050E062D10A
:100F9000CA01B901A70196015DD1162F6093210204
:100FA00070932202C501B401A701960153D1062F07
:100FB000B72ECA01B901A70196014CD1A62E6093A4
:100FC0001F027093200200931D02B0921E0287E060
:100FD00090E009DB86E090E006DB85E090E003DB53
:100FE00084E090E000DB83E090E0FDDA612F82E0B6
:100FF00090E012DB6A2D81E090E00EDB602F80E054
:1010000090E00ADB00911B0210911C0203361105CF
:1010100081F461E088E08BD969E070E080E090E0E5
:1010200027DA60E088E083D910921C0210921B023C
:101030000BC069E070E080E090E01ADA0F5F1F4FAC
:1010400010931C0200931B0240900002509001027A
:101050006090020270900302411451046104710413
:1010600089F08BA19CA1D1D181E0481A5108610877
:101070007108409200025092010260920202709246
:101080000302B4CC08E010E061E088E050D9A12C64
:10109000B12C60E0C501C0DA2FEFA21AB20A88E0D5
:1010A000A816B104B1F764E670E080E090E0E0D902
:1010B00060E088E03CD9A12CB12CC50194DA2FEF77
:1010C000A21AB20A88E0A816B104B9F76CE271E07E
:1010D00080E090E0CDD901501109B1F6C2CF80E097
:1010E00090E0892B09F482CC0E9400007FCCCF9342
:1010F000DF93C7E0D0E0D0937E02C0937D0286E00C
:1011000090E09093800280937F0285E090E090933E
:1011100082028093810281E090E090938402809328
:10112000830287E0E5D880917F02E2D88091810236
:10113000DFD861E080918102FAD8D0937E02C0931B
:101140007D02EDE3F2E0119282E0ED37F807D9F786
:10115000C0E0D0E08091830290918402C817D90743
:10116000BCF520E04FE0BE018DE292E0B9D9D7FD99
:101170000DC08091830290918402C817D90734F47E
:1011800027E04BE0BE018DE292E0AAD920E049E0E1
:10119000BE018DE292E0A4D9D7FD18C080918302F0
:1011A00090918402C817D90724F4BE018DE292E021
:1011B00050DA8091830290918402C817D90734F4E1
:1011C00020E04CE0BE018DE292E08AD92196C2CFA8
:1011D000DF91CF910895BB272A3051F4992342F42F
:1011E000BDE290958095709561957F4F8F4F9F4F91
:1011F00001C0BB27FA01A62F621771058105910571
:10120000330B30FB66F0AA27660F771F881F991FE4
:10121000AA1FA21710F0A21B63953850A9F7A05D72
:10122000AA3308F0A95DA19336F7B111B1931082EA
:10123000CA0100C0DC01FC01672F71917723E1F73F
:10124000329704C07C916D9370836291AE17BF0793
:10125000C8F30895052E97FB16F400940FD057FDA0
:1012600005D01CD007FC02D046F408C0509540952C
:10127000309521953F4F4F4F5F4F08959095809542
:10128000709561957F4F8F4F9F4F0895EE0FFF1F11
:10129000881F8BBF0790F691E02D1994A1E21A2EBA
:1012A000AA1BBB1BFD010DC0AA1FBB1FEE1FFF1F0A
:1012B000A217B307E407F50720F0A21BB30BE40B5A
:1012C000F50B661F771F881F991F1A9469F76095A1
:1012D0007095809590959B01AC01BD01CF0108955B
:1012E000CF93DF938230910510F482E090E0E0919B
:1012F0008702F091880220E030E0C0E0D0E0309733
:1013000011F14081518148175907C0F0481759071A
:1013100061F482819381209719F09B838A832BC08B
:10132000909388028093870226C02115310519F019
:101330004217530718F49A01BE01DF01EF01028042
:10134000F381E02DDCCF2115310509F1281B390B84
:101350002430310590F412968D919C91139761156C
:10136000710521F0FB019383828304C0909388026E
:1013700080938702FD01329644C0FD01E20FF31F06
:1013800081939193225031092D933C933AC020913F
:10139000850230918602232B41F420910602309180
:1013A0000702309386022093850220910402309137
:1013B00005022115310541F42DB73EB740910802D1
:1013C00050910902241B350BE0918502F0918602B1
:1013D000E217F307A0F42E1B3F0B2817390778F00C
:1013E000AC014E5F5F4F2417350748F04E0F5F1F6B
:1013F00050938602409385028193919302C0E0E06E
:10140000F0E0CF01DF91CF9108950F931F93CF9319
:10141000DF93009709F48CC0FC013297138212828B
:1014200000918702109188020115110581F4208135
:101430003181820F931F20918502309186022817F7
:10144000390779F5F0938602E093850271C0D801DF
:1014500040E050E0AE17BF0750F412962D913C913A
:101460001397AD012115310509F1D901F3CF9D0184
:10147000DA013383228360817181860F971F82177F
:10148000930769F4EC0128813981260F371F2E5FFD
:101490003F4F318320838A819B8193838283452BB5
:1014A00029F4F0938802E093870242C01396FC93DC
:1014B000EE931297ED01499159919E01240F351F2A
:1014C000E217F30771F480819181840F951F0296D2
:1014D00011969C938E938281938113969C938E9305
:1014E0001297E0E0F0E0D80112968D919C9113974D
:1014F000009719F0F8018C01F6CF8D919C9198011D
:101500002E5F3F4F820F931F2091850230918602FC
:101510002817390769F4309729F41092880210923D
:10152000870202C013821282109386020093850202
:10153000DF91CF911F910F9108956F927F928F92BB
:101540009F92AF92BF92CF92DF92EF92FF920F9352
:101550001F93CF93DF93EC01009781F4CB01DF91D0
:10156000CF911F910F91FF90EF90DF90CF90BF90A0
:10157000AF909F908F907F906F90B2CEFC01E60F5E
:10158000F71F9C0122503109E217F30708F4A8C0A5
:10159000D9010D911C91119706171707A8F0053076
:1015A000110508F49BC0C80104978617970708F433
:1015B00095C002501109061B170B019311936D93EF
:1015C0007C93CF0122DF8AC05B01A01AB10A4C01D3
:1015D000800E911EA0918702B091880240E050E0F9
:1015E000E12CF12C109709F44AC0A815B905D1F5E2
:1015F0006D907C901197630182E0C80ED11CCA14D3
:10160000DB0480F1A3014A195B096A0182E0C80E7C
:10161000D11C1296BC9012971396AC91B5E0CB16E4
:10162000D10440F0B282A38351834083D9016D93EA
:101630007C930AC00E5F1F4FC301800F911FF901F9
:1016400091838083EB2DFA2FE114F10431F0D7015F
:101650001396FC93EE93129741C0F0938802E093A7
:1016600087023CC08D919C9111974817590708F447
:10167000AC017D0112960D90BC91A02DB3CF80914D
:1016800085029091860288159905E1F4461757075F
:10169000C8F48091040290910502009741F48DB73F
:1016A0009EB74091080250910902841B950BE817E0
:1016B000F907B0F4F0938602E0938502F901718393
:1016C00060830CC0CB010CDE7C01009749F0A801BF
:1016D000BE0117D0CE0199DEC70104C0CE0102C001
:1016E00080E090E0DF91CF911F910F91FF90EF90FC
:1016F000DF90CF90BF90AF909F908F907F906F9032
:101700000895FB01DC0102C001900D924150504050
:10171000D8F70895FB01DC018D910190801901102B
:10172000D9F3990B0895FB01DC0101900D92002083
:08173000E1F70895F894FFCFE2
:10173800E8396E01000089028000393939393939B0
:0217480000009F
:020000023000CC
:10E000000D9489F10D94B2F10D94B2F10D94B2F129
:10E010000D94B2F10D94B2F10D94B2F10D94B2F1F0
:10E020000D94B2F10D94B2F10D94B2F10D94B2F1E0
:10E030000D94B2F10D94B2F10D94B2F10D94B2F1D0
:10E040000D94B2F10D94B2F10D94B2F10D94B2F1C0
:10E050000D94B2F10D94B2F10D94B2F10D94B2F1B0
:10E060000D94B2F10D94B2F10D94B2F10D94B2F1A0
:10E070000D94B2F10D94B2F10D94B2F10D94B2F190
:10E080000D94B2F10D94B2F10D94B2F10D94B2F180
:10E090000D94B2F10D94B2F10D94B2F10D94B2F170
:10E0A0000D94B2F10D94B2F10D94B2F10D94B2F160
:10E0B0000D94B2F10D94B2F10D94B2F10D94B2F150
:10E0C0000D94B2F10D94B2F10D94B2F10D94B2F140
:10E0D0000D94B2F10D94B2F10D94B2F10D94B2F130
:10E0E0000D94B2F141546D656761323536300041AF
:10E0F000726475696E6F206578706C6F72657220DE
:10E1000073746B3530305632206279204D4C530099
:10E11000426F6F746C6F616465723E004875683F52
:10E1200000436F6D70696C6564206F6E203D200048
:10E130004350552054797065202020203D20005FF9
:10E140005F4156525F415243485F5F3D2000415658
:10E1500052204C696243205665723D20004743437C
:10E160002056657273696F6E203D20004350552024
:10E1700049442020202020203D20004C6F7720663D
:10E18000757365202020203D20004869676820665F
:10E190007573652020203D200045787420667573D6
:10E1A00065202020203D20004C6F636B2066757336
:10E1B000652020203D20004D617220203720323024
:10E1C000313300312E362E3800342E332E350056A2
:10E1D00023202020414444522020206F7020636F70
:10E1E00064652020202020696E73747275637469E1
:10E1F0006F6E2061646472202020496E74657272B3
:10E20000757074006E6F20766563746F7200726A49
:10E210006D702020006A6D70200057686174207056
:10E220006F72743A00506F7274206E6F7420737541
:10E2300070706F72746564004D7573742062652030
:10E2400061206C6574746572002000577269747483
:10E25000696E672045450052656164696E672045B7
:10E26000450045452065727220636E743D00504F35
:10E27000525400303D5A65726F2061646472003FF1
:10E280003D43505520737461747300403D454550C3
:10E29000524F4D207465737400423D426C696E6B41
:10E2A000204C454400453D44756D70204545505215
:10E2B0004F4D00463D44756D7020464C415348001B
:10E2C000483D48656C70004C3D4C69737420492F83
:10E2D0004F20506F72747300513D51756974005234
:10E2E0003D44756D702052414D00563D73686F7707
:10E2F00020696E7465727275707420566563746FF0
:10E30000727300593D506F727420626C696E6B00BD
:10E310002A0011241FBECFEFD1E2DEBFCDBF01E046
:10E320000CBF12E0A0E0B2E0EEE1FDEF03E00BBFB6
:10E3300002C007900D92A030B107D9F712E0A0E01B
:10E34000B2E001C01D92AE30B107E1F70F9460F367
:10E350000D948DFE01E20EBF0FEF0DBF11241FBE05
:10E360000D9460F30D9400F020E030E040ED57E0B4
:10E3700005C0FA013197F1F72F5F3F4F2817390792
:10E38000C0F308959C01260F311DC901A0E0B0E043
:10E390002F5F3F4FABBFFC018791882361F08093D3
:10E3A000C6008091C00086FFFCCF8091C0008064D1
:10E3B0008093C000EACF08958DE08093C6008091DD
:10E3C000C00086FFFCCF8091C00080648093C000B5
:10E3D0008AE08093C6008091C00086FFFCCF8091C8
:10E3E000C00080648093C00008950F94C2F10F9420
:10E3F000DCF10895FC019081992359F09093C600B7
:10E400008091C00086FFFCCF8091C0008064809323
:10E41000C0003196992379F70895282F982F929567
:10E420009F70892F805D8A3308F0895F8093C600D2
:10E430008091C00086FFFCCF8091C00080648093F3
:10E44000C000822F8F70982F905D9A3308F0995FEB
:10E450009093C6008091C00086FFFCCF8091C000E1
:10E4600080648093C00008959C01FB01853691056E
:10E470001CF46330710594F0C90164E670E00F94F8
:10E480002EFE605D7F4F6093C6008091C00086FFC6
:10E49000FCCF8091C00080648093C0002B30310598
:10E4A00014F43297B4F0C90164E670E00F942EFEC4
:10E4B0006AE070E00F942EFE605D7F4F6093C600AF
:10E4C0008091C00086FFFCCF8091C0008064809363
:10E4D000C000C9016AE070E00F942EFEC0968093E0
:10E4E000C6008091C00086FFFCCF8091C000806490
:10E4F0008093C00008951F93182F8EE692EE60E07F
:10E500000F94C2F11093C6008091C00086FFFCCF2B
:10E510008091C00080648093C0000F94DCF11F9153
:10E5200008952F923F924F925F926F927F928F92B7
:10E530009F92AF92BF92CF92DF92EF92FF920F9392
:10E540001F93DF93CF93CDB7DEB762970FB6F894E2
:10E55000DEBF0FBECDBF382E622ECA01DB015C01CB
:10E560006D01772420E2222E2E010894411C511CBB
:10E570008BC081E0A81680E0B80681E0C80680E084
:10E58000D80628F0C601AA27BB270F940DF2BB2797
:10E59000AD2D9C2D8B2D0F940DF28A2D0F940DF225
:10E5A0002092C6008091C00086FFFCCF8091C00001
:10E5B00080648093C0009DE29093C6008091C0006B
:10E5C00086FFFCCF8091C00080648093C0002092C1
:10E5D000C6008091C00086FFFCCF8091C00080649F
:10E5E0008093C00019828601750188249924A1E0D6
:10E5F0003A1651F03A1620F0B2E03B1661F409C029
:10E600000BBFF701779007C0C7010F9477FE782EF4
:10E6100002C0F7017080872D0F940DF22092C60082
:10E620008091C00086FFFCCF8091C0008064809301
:10E63000C000872D8052F401EF70F0708F3520F408
:10E64000E40DF51D708204C0E40DF51D8EE280839B
:10E650000894E11CF11C011D111D0894811C911CE2
:10E6600090E18916910409F0C2CF80E190E0A0E02A
:10E67000B0E0A80EB91ECA1EDB1E198AC2010F9493
:10E68000FAF10F94DCF16A94662009F072CF629679
:10E690000FB6F894DEBF0FBECDBFCF91DF911F91B3
:10E6A0000F91FF90EF90DF90CF90BF90AF909F9031
:10E6B0008F907F906F905F904F903F902F90089534
:10E6C0002F923F924F925F926F927F928F929F9282
:10E6D000AF92BF92CF92DF92EF92FF920F931F9370
:10E6E000DF93CF93CDB7DEB7CD53D1400FB6F894BB
:10E6F000DEBF0FBECDBF01E20EBF0FEF0DBF94B75F
:10E70000F894A89514BE80916000886180936000A1
:10E7100010926000789493FF05C0E0910002F091A0
:10E7200001021995279A2F9A8091C00082608093E8
:10E73000C00080E18093C40088E18093C1000000A4
:10E74000EE24FF24870144E0A42EB12CCC24DD2448
:10E7500024C0C5010197F1F70894E11CF11C011DCB
:10E76000111D21E2E2162EE4F20620E0020720E06D
:10E77000120718F031E0C32ED12CC801B70127ECE5
:10E780003BE140E050E00F9441FE611571058105C9
:10E79000910519F485B1805885B98091C00087FD35
:10E7A00003C0C114D104A9F2A6014F5F5F4FC25E3E
:10E7B000DE4F59834883CE51D140C25EDE4F8881FF
:10E7C0009981CE51D140019711F00D9410FEC05D9A
:10E7D000DE4F19821882C053D14060E0C15DDE4F28
:10E7E0001882CF52D14088249924C35DDE4F19820C
:10E7F0001882CD52D140C05EDE4F188219821A8233
:10E800001B82C052D140CE5CDE4F188219821A8220
:10E810001B82C253D140EE24FF2487010BBFF701B6
:10E8200007911691C45CDE4F19830883CC53D14005
:10E830000D940BFEC25EDE4F28813981CE51D1404E
:10E840002130310509F52091C600C25EDE4F1982E4
:10E850001882CE51D14022C02F5F3F4F4F4F5F4FA4
:10E86000213082E138078AE7480780E0580780F0C6
:10E87000C45CDE4FE881F981CC53D140EF5FFF4F9C
:10E8800019F0EE27FF27099420E030E040E050E047
:10E890008091C00087FFE0CF2091C600C35DDE4FAE
:10E8A00048815981CD52D1404F5F5F4FC35DDE4FEC
:10E8B00059834883CD52D140213209F063C64A3092
:10E8C000510508F05FC60894811C911C53E0851621
:10E8D000910409F059C600E010E018C081E280936D
:10E8E000C6008091C00086FFFCCF8091C00080648C
:10E8F0008093C0002F5F3F4F2931310579F70F9486
:10E90000DCF10F5F1F4F0530110519F020E030E0FA
:10E91000E5CF10920A0210920B0210920C02109294
:10E920000D02109206021092070210920802109235
:10E930000902109202021092030210920402109235
:10E9400005028FEE90EE60E00F94F5F180E191EE1C
:10E9500060E00F94C2F18091C00087FFFCCF9091DE
:10E96000C600903608F09F759032B8F09093C600BC
:10E970008091C00086FFFCCF8091C00080648093AE
:10E98000C000A0E2A093C6008091C00086FFFCCF2B
:10E990008091C00080648093C000983409F4D7C18E
:10E9A0009934B8F4923409F459C1933458F490333B
:10E9B00019F1903308F4E3C59F33A1F1903409F0C5
:10E9C000DEC5BDC0953409F470C1963409F0D7C5D1
:10E9D00098C1923509F42BC2933538F49C3409F46C
:10E9E000F5C1913509F0CBC518C2963509F445C279
:10E9F000993509F0C4C567C483E792EE62E00F94CD
:10EA0000F5F110920602109207021092080210927D
:10EA1000090210920A0210920B0210920C0210923C
:10EA20000D0213C18FE792EE62E00F94F5F18FEEC5
:10EA300090EE60E00F94F5F181E291EE60E00F94CA
:10EA4000C2F187EB91EE60E00F94F5F180E391EE77
:10EA500060E00F94C2F184EE90EE60E00F94F5F167
:10EA60008FE391EE60E00F94C2F186E090E061E008
:10EA700070E00F9434F20F94DCF18DE591EE60E0DC
:10EA80000F94C2F189EC91EE60E00F94F5F18EE401
:10EA900091EE60E00F94C2F183EC91EE60E00F9490
:10EAA000F5F18CE691EE60E00F94C2F18EE10F94E7
:10EAB0000DF288E90F940DF281E00F940DF20F949E
:10EAC000DCF18BE791EE60E00F94C2F119E0E0E039
:10EAD000F0E010935700E4918E2F0F940DF20F94F5
:10EAE000DCF18AE891EE60E00F94C2F1E3E0F0E03F
:10EAF00010935700E4918E2F0F940DF20F94DCF1D8
:10EB000089E991EE60E00F94C2F1E2E0F0E0109349
:10EB10005700E4918E2F0F940DF20F94DCF188EAE8
:10EB200091EE60E00F94C2F1E1E0F0E01093570045
:10EB30001491812F0F940DF20F94DCF107CF8BE825
:10EB400092EE62E00F94F5F18BE492EE60E00F94A8
:10EB5000F5F10F94DCF100E010E019C0C8016F2D51
:10EB60000F947FFEFF2031F489E492EE60E00F9471
:10EB7000C2F10BC0F092C6008091C00086FFFCCFAE
:10EB80008091C00080648093C0000F5F1F4FC80158
:10EB900081519F41A0E0B0E0ABBFFC01F790BAE229
:10EBA000FB1621F0E2E000301E07C1F60F94DCF105
:10EBB0000F94DCF187E592EE60E00F94F5F10F948D
:10EBC000DCF1CC24DD2400E010E01EC0C8010F946D
:10EBD00077FEF82E882331F489E492EE60E00F94FA
:10EBE000C2F10BC08093C6008091C00086FFFCCFAD
:10EBF0008091C00080648093C000FE1419F00894D6
:10EC0000C11CD11C0F5F1F4FC80181519F41A0E063
:10EC1000B0E0ABBFFC01E790FAE2EF1621F022E092
:10EC20000030120799F60F94DCF10F94DCF182E6C4
:10EC300092EE60E00F94C2F1C60161E070E00F94C3
:10EC400034F20F94DCF10F94DCF110920202109276
:10EC50000302109204021092050278CE89E992EE26
:10EC600062E00F94F5F1279A2F9A16C02F9880E052
:10EC700090E0E0EDF7E03197F1F7019684369105E9
:10EC8000C1F72F9A80E090E0E0EDF7E03197F1F7DF
:10EC9000019684369105C1F78091C00087FFE6CFC9
:10ECA0008091C00087FFFCCF64C485EA92EE62E0E9
:10ECB0000F94F5F140910202509103026091040219
:10ECC0007091050281E020E10F9491F2809102029F
:10ECD00090910302A0910402B091050280509F4FD1
:10ECE000AF4FBF4F8093020290930302A0930402A0
:10ECF000B093050280509041A040B04008F426CE69
:10ED0000A4CF83EB92EE62E00F94F5F140910602FE
:10ED100050910702609108027091090280E020E1A1
:10ED20000F9491F28091060290910702A09108023F
:10ED3000B091090280509F4FAF4FBF4F80930602A2
:10ED400090930702A0930802B0930902FFCD80ECD4
:10ED500092EE62E00F94F5F183E792EE60E00F949B
:10ED6000F5F18FE792EE60E00F94F5F18BE892EE0B
:10ED700060E00F94F5F189E992EE60E00F94F5F10F
:10ED800085EA92EE60E00F94F5F183EB92EE60E09D
:10ED90000F94F5F180EC92EE60E00F94F5F187ECC2
:10EDA00092EE60E00F94F5F188ED92EE60E00F9442
:10EDB000F5F18FED92EE60E00F94F5F18AEE92EEB0
:10EDC00060E00F94F5F183E093EEBDCD87EC92EE19
:10EDD00062E00F94F5F181E40F947BF282E40F94EA
:10EDE0007BF283E40F947BF284E40F947BF285E45E
:10EDF0000F947BF286E40F947BF287E40F947BF20E
:10EE000088E40F947BF28AE40F947BF28BE40F94F6
:10EE10007BF28CE40F947BF299CD88ED92EE62E068
:10EE20000F94F5F1772473948824992409C48FED05
:10EE300092EE62E00F94F5F140910A0250910B02BC
:10EE400060910C0270910D0282E020E10F9491F22A
:10EE500080910A0290910B02A0910C02B0910D02D8
:10EE600080509F4FAF4FBF4F80930A0290930B0289
:10EE7000A0930C02B0930D0269CD8AEE92EE62E08F
:10EE80000F94F5F184EE90EE60E00F94F5F18FECC5
:10EE900091EE60E00F94F5F1662477244301CC5D98
:10EEA000DE4F19821882C452D140D401C301B695F5
:10EEB000A79597958795CA5DDE4F88839983AA8326
:10EEC000BB83C652D140CC5DDE4FA881B981C4520C
:10EED000D1401196CC5DDE4FB983A883C452D14096
:10EEE000CD0162E070E00F9434F2B0E2B093C6005E
:10EEF0008091C00086FFFCCF8091C0008064809329
:10EF0000C000EDE2E093C6008091C00086FFFCCF18
:10EF10008091C00080648093C000F0E2F093C6004E
:10EF20008091C00086FFFCCF8091C00080648093F8
:10EF3000C000CA5DDE4FE880F9800A811B81C6529D
:10EF4000D140BB27A12F902F8F2D0F940DF2CA5DBA
:10EF5000DE4F8881C652D1400F940DF2B0E2FB2EF5
:10EF6000F092C6008091C00086FFFCCF8091C00067
:10EF700080648093C0000DE30093C6008091C000C0
:10EF800086FFFCCF8091C00080648093C00010E2B7
:10EF90001093C6008091C00086FFFCCF8091C00016
:10EFA00080648093C0008BBEF3012791C65DDE4F65
:10EFB0002883CA52D140A22EBB24CC24DD2408943D
:10EFC000611C711C811C911C8BBEF3018791282E42
:10EFD0003324442455240894611C711C811C911C09
:10EFE0008BBEF3013791C55DDE4F3883CB52D140E4
:10EFF0000894611C711C811C911C8BBEF30147910C
:10F00000C45DDE4F4883CC52D140ADEFEA2EAFEF66
:10F01000FA2EAFEF0A2FAFEF1A2F6E0C7F1C801E57
:10F02000911E142D032DF22CEE24EA0CFB1C0C1D5A
:10F030001D1D0F940DF220E22093C6008091C000A8
:10F0400086FFFCCF8091C00080648093C000C65DC5
:10F05000DE4F8881CA52D1400F940DF230E23093D6
:10F06000C6008091C00086FFFCCF8091C000806404
:10F070008093C000C45DDE4F8881CC52D1400F9494
:10F080000DF240E24093C6008091C00086FFFCCFA5
:10F090008091C00080648093C000C55DDE4F888190
:10F0A000CB52D1400F940DF250E25093C6008091A4
:10F0B000C00086FFFCCF8091C00080648093C000B8
:10F0C0008FEFE8168FEFF80680E0080780E018075A
:10F0D00031F484E092EE60E00F94C2F1DFC0D80119
:10F0E000C7018070907CA070B0708050904CA040A0
:10F0F000B040D1F52FEF3FE340E050E0E222F322B1
:10F1000004231523CA5DDE4FA880B980CA80DB8046
:10F11000C652D140AE0CBF1CC01ED11EAA0CBB1CD7
:10F12000CC1CDD1C8EE092EE60E00F94C2F1BB2798
:10F13000A12F902F8F2D0F940DF28E2D0F940DF285
:10F1400030E23093C6008091C00086FFFCCF8091F2
:10F15000C00080648093C0004EE34093C60080915D
:10F16000C00086FFFCCF87C08EE09EEFA0E0B0E03D
:10F17000E822F9220A231B239CE0E91694E9F90608
:10F1800090E0090790E0190709F088C0C45DDE4FE0
:10F19000A881CC52D140EA2EFF2400E010E0102FCD
:10F1A0000F2DFE2CEE24C55DDE4FB881CB52D14031
:10F1B000EB0EF11C011D111DD601C501817090706F
:10F1C000A070B070DC0199278827E80EF91E0A1F8D
:10F1D0001B1F20EF30E040E050E0A222B322C42207
:10F1E000D52241E1AA0CBB1CCC1CDD1C4A95D1F7F1
:10F1F000EA0CFB1C0C1D1D1D81E090E0A0E0B0E0BE
:10F20000282239224A225B2235E1220C331C441C7D
:10F21000551C3A95D1F7E20CF31C041D151D57013E
:10F220006801AA0CBB1CCC1CDD1C85E192EE60E0E1
:10F230000F94C2F1C801AA27BB270F940DF2BB2778
:10F24000A12F902F8F2D0F940DF28E2D0F940DF274
:10F2500090E29093C6008091C00086FFFCCF809121
:10F26000C00080648093C000AEE3A093C60080918C
:10F27000C00086FFFCCF8091C00080648093C000F6
:10F28000C601AA27BB270F940DF2BB27AD2D9C2DDD
:10F290008B2D0F940DF28A2D0F940DF20F94DCF14B
:10F2A000CC5DDE4FE881F981C452D140F99709F471
:10F2B0004DCBF4E0EF2EF12C012D112D6E0C7F1CA7
:10F2C000801E911EF2CD83E093EE62E00F94F5F183
:10F2D0008AE192EE60E00F94C2F18091C00087FF56
:10F2E000FCCF1091C6001F751093C6008091C0001E
:10F2F00086FFFCCF8091C00080648093C0000F9493
:10F30000DCF1812F81548A3108F036C1163409F4BA
:10F3100095C0173490F4133409F44EC0143430F40B
:10F320001134F1F0123409F01DC130C0143409F465
:10F3300059C0153409F016C16BC01A3409F4C4C0A1
:10F340001B3438F4173409F48FC0183409F00AC19B
:10F35000A1C01B3409F4D2C01C3409F003C1E8C0B9
:10F360008FEF81B90DC082B1809582B980E090E0C5
:10F37000E0EDF7E03197F1F70196883C9105C1F790
:10F380008091C00087FFEFCF12B8EFC08FEF84B934
:10F390000DC085B1809585B980E090E0E0EDF7E0A3
:10F3A0003197F1F70196883C9105C1F78091C00033
:10F3B00087FFEFCF15B8D9C08FEF87B90DC088B1DF
:10F3C000809588B980E090E0E0EDF7E03197F1F7C3
:10F3D0000196883C9105C1F78091C00087FFEFCF6F
:10F3E00018B8C3C08FEF8AB90DC08BB180958BB9A7
:10F3F00080E090E0E0EDF7E03197F1F70196883C8E
:10F400009105C1F78091C00087FFEFCF1BB8ADC059
:10F410008FEF8DB90DC08EB180958EB980E090E0F0
:10F42000E0EDF7E03197F1F70196883C9105C1F7DF
:10F430008091C00087FFEFCF1EB897C08FEF80BBD1
:10F440000DC081B3809581BB80E090E0E0EDF7E0F6
:10F450003197F1F70196883C9105C1F78091C00082
:10F4600087FFEFCF11BA81C08FEF83BB0DC084B38C
:10F47000809584BB80E090E0E0EDF7E03197F1F714
:10F480000196883C9105C1F78091C00087FFEFCFBE
:10F4900014BA6BC08FEF809301010FC080910201FD
:10F4A00080958093020180E090E0E0EDF7E03197F5
:10F4B000F1F70196883C9105C1F78091C00087FF64
:10F4C000EDCF1092020151C08FEF809304010FC065
:10F4D0008091050180958093050180E090E0E0ED4A
:10F4E000F7E03197F1F70196883C9105C1F78091DB
:10F4F000C00087FFEDCF1092050137C08FEF8093DA
:10F5000007010FC08091080180958093080180E079
:10F5100090E0E0EDF7E03197F1F70196883C910536
:10F52000C1F78091C00087FFEDCF109208011DC088
:10F530008FEF80930A010FC080910B01809580931B
:10F540000B0180E090E0E0EDF7E03197F1F70196F4
:10F55000883C9105C1F78091C00087FFEDCF1092E4
:10F560000B0103C085E292EEEEC98091C00087FFD7
:10F57000FCCF8091C600EAC988E392EEE4C98CE131
:10F5800091EEE1C988249924933011F1943028F444
:10F59000913089F09230B8F408C0953061F195301F
:10F5A000F0F0963009F048C043C02B3109F042C951
:10F5B00091E06BE13FC96227C15DDE4F2883CF52E6
:10F5C000D14092E037C9B22FA0E0622793E032C960
:10F5D000822F90E0A82BB92B622794E02BC92E3004
:10F5E00009F039C3622795E0C05DDE4F19821882A9
:10F5F000C053D1401FC9E1E0F0E0EC0FFD1FC05D3A
:10F60000DE4F08811981C053D140E00FF11F2083E4
:10F610000F5F1F4FC05DDE4F19830883C053D14079
:10F6200062270A171B0709F005C9D80196E002C92D
:10F63000261709F010C303C0973009F0FBC87724E0
:10F640009981933109F412C19431C8F4963009F4C8
:10F65000D8C0973050F4923009F406C1933009F4C1
:10F660006DC0913009F059C253C0913109F477C08F
:10F67000923108F0BBC0903109F04FC2F5C098310B
:10F6800009F487C0993150F4953109F4EFC09531F0
:10F6900008F4C6C1963109F040C2C2C19A3109F4DA
:10F6A0006CC09A3108F491C09B3109F45BC09D3164
:10F6B00009F033C29D81903359F48F81882311F46E
:10F6C0009EE11CC0813011F091E018C098E916C08D
:10F6D000892F807591F0903539F4E0E0F0E089E011
:10F6E0008093570094910AC0983539F4E3E0F0E034
:10F6F00089E080935700949101C090E01A821B82A8
:10F700008D818C831D829E831F8227E030E009C299
:10F710001A8288E08B8381E48C8386E58D8382E581
:10F720008E8389E48F8383E5888780E589878FE5E9
:10F730008A8782E38B872BE030E0F3C18A818139AD
:10F7400041F0823941F0803911F48FE005C080E04A
:10F7500003C082E001C08AE01A828B8344C0772410
:10F76000739482C08D81882311F48EE12CC0813086
:10F7700011F081E028C088E926C01A82E1E0F0E0BB
:10F7800089E08093570084918B831C8224E030E0D1
:10F79000C8C18B81803589F48C81883039F4E2E0EE
:10F7A000F0E089E08093570084910DC0E0E0F0E044
:10F7B00089E080935700849106C0E3E0F0E089E09F
:10F7C0008093570084911A82DFCF8D81836C99E0FA
:10F7D000E1E0F0E0082E90935700E89507B600FCB2
:10F7E000FDCF1A821B8223E030E09BC180EC8A832C
:10F7F000CE5CDE4F188219821A821B82C253D1401E
:10F800008EC18A8190E0A0E0B0E0582F44273327D2
:10F8100022278B8190E0A0E0B0E0DC0199278827C7
:10F82000282B392B4A2B5B2B8D8190E0A0E0B0E098
:10F83000282B392B4A2B5B2B8C8190E0A0E0B0E089
:10F84000BA2FA92F982F8827282B392B4A2B5B2BCF
:10F85000220F331F441F551FC05EDE4F288339839C
:10F860004A835B83C052D1401A8259C13A81C95C34
:10F87000DE4F3883C753D140CA5CDE4F1882C6536F
:10F88000D1408B81C82EDD24CA5CDE4F488159816E
:10F89000C653D140C42AD52A933109F082C0CE5C28
:10F8A000DE4F88819981AA81BB81C253D1408050AB
:10F8B000904CA340B04030F583E0CE5CDE4FE88052
:10F8C000F9800A811B81C253D140F70100935B008C
:10F8D00080935700E89507B600FCFDCFCE5CDE4F65
:10F8E000088119812A813B81C253D14000501F4FAA
:10F8F0002F4F3F4FCE5CDE4F088319832A833B8313
:10F90000C253D140C05EDE4F488159816A817B81FC
:10F91000C052D140DE011B9631E08C9111962C91A2
:10F9200011971296C75CDE4F2883C953D140C85C3B
:10F93000DE4F1882C853D14090E0C85CDE4FE881AA
:10F94000F981C853D1408E2B9F2B0C01FA01609393
:10F950005B0030935700E89511244E5F5F4F6F4F67
:10F960007F4F0EEFE02E0FEFF02ECE0CDF1CC114F8
:10F97000D10499F685E0C05EDE4F088119812A81A5
:10F980003B81C052D140F80120935B008093570027
:10F99000E89507B600FCFDCF81E180935700E8951C
:10F9A00035C0C05EDE4F88819981AA81BB81C0527B
:10F9B000D140B695A795979587957C018601ABE0D8
:10F9C000AA2EB12CAC0EBD1E0BC0D5016D915D01F0
:10F9D000C7010F947FFE0894E11CF11C01501040F8
:10F9E0000115110591F7A60160E070E0440F551F65
:10F9F000661F771FC05EDE4FE880F9800A811B8199
:10FA0000C052D1404E0D5F1D601F711F1A82C05E33
:10FA1000DE4F488359836A837B83C052D1407FC0C5
:10FA2000FA80C55CDE4FF882CB53D140C65CDE4F16
:10FA30001882CA53D1408B81C82EDD24C65CDE4FAC
:10FA400008811981CA53D140C02AD12A1A828981DA
:10FA5000BE016D5F7F4F843121F59601C05EDE4FA0
:10FA6000E880F9800A811B81C052D1400BBFF701A9
:10FA700087919691DB018C9311969C936E5F7F4FDB
:10FA8000D801C7010296A11DB11DC05EDE4F88835B
:10FA90009983AA83BB83C052D14022503040F1F6F3
:10FAA00036C0C05EDE4F288139814A815B81C052F9
:10FAB000D1400894C108D108760100E010E0089414
:10FAC000C11CD11C0894E11CF11C011D111DE20E8A
:10FAD000F31E041F151F21BDBB27A52F942F832FB5
:10FAE00082BD2F5F3F4F4F4F5F4FF89A80B5DB01CC
:10FAF0008D93BD012E153F054007510761F7C05E8C
:10FB0000DE4F288339834A835B83C052D1409601FC
:10FB10002D5F3F4FFB01108204C080EC8A8322E0FE
:10FB200030E08BE18093C6008091C00086FFFCCF5F
:10FB30008091C00080648093C000C15DDE4FF88179
:10FB4000CF52D140F093C6008091C00086FFFCCF19
:10FB50008091C00080648093C000432F3093C60022
:10FB60008091C00086FFFCCF8091C00080648093AC
:10FB7000C000922F2093C6008091C00086FFFCCF6A
:10FB80008091C00080648093C0008EE08093C600A6
:10FB90008091C00086FFFCCF8091C000806480937C
:10FBA000C00065E1C15DDE4FE880CF52D1406E25D7
:10FBB00069276427FE01319610C090819093C6009A
:10FBC0008091C00086FFFCCF31968091C000806498
:10FBD0008093C0006927215030402115310569F715
:10FBE0006093C6008091C00086FFFCCF8091C0006A
:10FBF00080648093C00085B1805885B9772081F4F6
:10FC0000C15DDE4F0881CF52D1400F5FC15DDE4F35
:10FC10000883CF52D14090E0A0E0B0E00D941AF4F8
:10FC200027982F9880E090E020ED37E0F901319798
:10FC3000F1F7019684369105C9F700008091C00064
:10FC40008D7F8093C00081E180935700E895EE2777
:10FC5000FF270994FFCF90E00D941AF497FB092E2B
:10FC600007260AD077FD04D02ED006D000201AF443
:10FC7000709561957F4F0895F6F7909581959F4F08
:10FC80000895A1E21A2EAA1BBB1BFD010DC0AA1FDD
:10FC9000BB1FEE1FFF1FA217B307E407F50720F0F5
:10FCA000A21BB30BE40BF50B661F771F881F991F70
:10FCB0001A9469F760957095809590959B01AC01B9
:10FCC000BD01CF010895AA1BBB1B51E107C0AA1FAC
:10FCD000BB1FA617B70710F0A61BB70B881F991FED
:10FCE0005A95A9F780959095BC01CD010895F99991
:10FCF000FECF92BD81BDF89A992780B50895262F31
:10FD0000F999FECF1FBA92BD81BD20BD0FB6F89400
:0EFD1000FA9AF99A0FBE01960895F894FFCF63
:040000033000E000E9
:00000001FF
