:100000000C945D000C9485000C9485000C94850084
:100010000C9485000C9485000C9485000C9485004C
:100020000C9485000C9485000C9485000C9485003C
:100030000C9485000C9485000C9485000C9485002C
:100040000C949D050C9485000C946B050C9445054F
:100050000C9485000C9485000C9485000C9485000C
:100060000C94E7050C9485000000000800020100D4
:100070000003040700000000000000000000000072
:10008000250028002B0000000000240027002A0083
:10009000040404040404040402020202020203032E
:1000A0000303030301020408102040800102040836
:1000B0001020010204081020150711241FBECFEFE5
:1000C000D8E0DEBFCDBF11E0A0E0B1E0ECE2F2E1AC
:1000D00002C005900D92A63EB107D9F723E0A6EE27
:1000E000B1E001C01D92AE31B207E1F710E0CDE5FD
:1000F000D0E004C02197FE010E940909CC35D10748
:10010000C9F70E94C8070C9414090C94000090E0F1
:10011000FC01EC55FF4F2491FC01E057FF4F849107
:10012000882399F090E0880F991FFC01EA57FF4F50
:10013000A591B491FC01E458FF4F859194918FB73C
:10014000F894EC91E22BEC938FBF0895CF92DF925D
:10015000EF92FF920F931F93CF93DF936C017A017D
:100160008B01C0E0D0E0CE15DF0589F0D8016D919C
:100170008D01D601ED91FC910190F081E02DC60139
:100180000995892B11F47E0102C02196ECCFC7019D
:10019000DF91CF911F910F91FF90EF90DF90CF9063
:1001A0000895FC01918D828D981761F0828DDF0199
:1001B000A80FB11D5D968C91928D9F5F9F73928F5A
:1001C00090E008958FEF9FEF0895FC01918D828D4F
:1001D000981731F0828DE80FF11D858D90E008951C
:1001E0008FEF9FEF0895FC01918D228D892F90E074
:1001F000805C9F4F821B91098F73992708958EE52C
:1002000092E00E94F30021E0892B09F420E0822F84
:100210000895FC01848DDF01A80FB11DA35ABF4FC3
:100220002C91848D90E001968F739927848FA689F5
:10023000B7892C93A089B1898C9180648C93938D1C
:10024000848D981306C00288F389E02D80818F7D0C
:1002500080830895EF92FF920F931F93CF93DF93C4
:10026000EC0181E0888F9B8D8C8D981305C0E88907
:10027000F989808185FD24C0F62E0B8D10E00F5F7B
:100280001F4F0F731127E02E8C8DE8120CC00FB694
:1002900007FCFACFE889F989808185FFF5CFCE0187
:1002A0000E940901F1CF8B8DFE01E80FF11DE35A89
:1002B000FF4FF0820B8FEA89FB898081806207C043
:1002C000EE89FF896083E889F98980818064808371
:1002D00081E090E0DF91CF911F910F91FF90EF901F
:1002E0000895CF93DF93EC01888D8823C9F0EA89C4
:1002F000FB89808185FD05C0A889B9898C9186FD1F
:100300000FC00FB607FCF5CF808185FFF2CFA8891B
:10031000B9898C9185FFEDCFCE010E940901E7CF0D
:10032000DF91CF91089580E090E0892B29F00E9421
:10033000FF0081110C940000089590E0FC01E85941
:10034000FF4F3491FC01EC55FF4F2491FC01E05725
:10035000FF4FE491EE2309F43BC0332339F13330EE
:1003600091F038F43130A9F0323001F584B58F7D49
:1003700012C0373091F03830A1F03430B9F48091A8
:1003800080008F7D03C0809180008F7780938000F4
:100390000DC084B58F7784BD09C08091B0008F7780
:1003A00003C08091B0008F7D8093B000F0E0EE0F2D
:1003B000FF1FE458FF4FA591B4918FB7F894EC91CB
:1003C000611103C020952E2301C02E2B2C938FBFCB
:1003D00008951F93CF93DF93182FEB010E9487009E
:1003E000209711F460E004C0CF3FD10539F461E0FB
:1003F000812FDF91CF911F910C949D01E12FF0E0AF
:10040000E859FF4FE491E330F9F048F4E130B9F0F6
:10041000E230A1F584B5806284BDC8BD34C0E73048
:10042000E9F0E83019F1E43049F58091800080620C
:1004300080938000D0938B00C0938A0024C084B541
:10044000806884BDC7BD1FC0809180008068809394
:100450008000D0938900C093880015C08091B000BF
:1004600080688093B000C093B3000DC08091B0004D
:1004700080628093B000C093B40005C0C038D1053D
:100480000CF0B5CFAFCFDF91CF911F9108953FB75B
:10049000F89480915A0290915B02A0915C02B09115
:1004A0005D0226B5A89B05C02F3F19F00196A11D3E
:1004B000B11D3FBFBA2FA92F982F8827820F911DFA
:1004C000A11DB11DBC01CD0142E0660F771F881F41
:1004D000991F4A95D1F708958F929F92AF92BF923C
:1004E000CF92DF92EF92FF926B017C010E94470254
:1004F0004B015C01C114D104E104F104F1F00E944C
:100500004702DC01CB0188199909AA09BB09883E79
:100510009340A105B10570F321E0C21AD108E108AA
:10052000F10888EE880E83E0981EA11CB11CC1144E
:10053000D104E104F10419F7DDCFFF90EF90DF90D3
:10054000CF90BF90AF909F908F90089585ED80934E
:10055000BC008091BC0084FDFCCF10922F02089556
:1005600040910902262F30E0240F311D2132310540
:10057000DCF420912F022430C9F4FC0180E090E0EB
:10058000861758F4309109022191DC01A951BE4F20
:10059000A30FB11D2C930196F3CF80910902680F30
:1005A0006093090280E0089581E0089582E0089553
:1005B00008958FEF9FEF08958FEF9FEF089580913B
:1005C000E60190E09195819591090895CF93DF938D
:1005D00000D0CDB7DEB7CB01642F49835A830E9488
:1005E000B0024981842F5A81952F0F900F90DF918F
:1005F000CF910895CF93DF931F92CDB7DEB7698374
:1006000061E0CE0101960E94B00281E090E00F907F
:10061000DF91CF910895AF92BF92CF92DF92EF9288
:10062000FF920F931F93CF93DF938C015C018EE0B9
:10063000A80EB11CE42EF12CC0E0D0E0C62ED12CC7
:10064000CE15DF0579F0B6010C2E02C075956795C1
:100650000A94E2F76170F50181915F010E949D01AA
:100660002196EECF61E0F80185850E949D0160E052
:10067000F8018585DF91CF911F910F91FF90EF9049
:10068000DF90CF90BF90AF900C949D01DC01569607
:100690008C9156978F3F19F1E82FF0E0E859FF4F02
:1006A000E49119962D913C911A97EE2359F070E040
:1006B000232B31F02FEF30E0A901461B570BBA0175
:1006C0000C94E901662319F0232B31F403C0213087
:1006D000310511F461E001C060E00C949D010895C2
:1006E000EF92FF920F931F93CF93DF931F92CDB79B
:1006F000DEB77C018A01862F69830E9487006981A9
:10070000D70156966C9356971A961C930E93199789
:10071000ED91FC910084F185E02D60E0C7010F9020
:10072000DF91CF911F910F91FF90EF9009940F935C
:100730001F93CF93DF93EC01162F042F61E041301C
:1007400009F060E08B850E949D018C858F3F19F038
:1007500060E00E949D01023081F08C8184FF02C024
:1007600048E00CC0612F70E084E0759567958A952C
:10077000E1F744E0CE010E940B0344E0612FCE017B
:10078000DF91CF911F910F910C940B03DC01ED9140
:10079000FC910284F385E02D41E0099581E090E031
:1007A0000895DC01ED91FC910284F385E02D40E099
:1007B0000994CF93DF93CDB7DEB728970FB6F8949F
:1007C000DEBF0FBECDBF1D8290E49E8324E12F8348
:1007D00024E5288719829A8390E19B8390E59C8386
:1007E00020910E03821710F08FEF820F30910F03CC
:1007F00090E0FE01E80FF91F303121F4243011F4AC
:10080000618101C06581606887E093E028960FB63A
:10081000F894DEBF0FBECDBFDF91CF910C94D10312
:100820000F931F93CF93DF93EC01423018F08C812C
:1008300088608C834F836887222329F0413019F424
:100840008C8184608C8364E670E080E090E00E949C
:100850006C026C8164FD31C0E881F9810284F3850A
:10086000E02D42E063E0CE0109950BE416E4C801F7
:100870000197F1F7E881F9810284F385E02D42E0E8
:1008800063E0CE010995C8010197F1F7E881F9818C
:100890000284F385E02D42E063E0CE01099583E513
:1008A00092E00197F1F7E881F9810284F385E02D68
:1008B00042E062E0CE01099516C06062CE010E945E
:1008C000D1038BE496E40197F1F76C816062CE016D
:1008D0000E94D10383E592E00197F1F76C81606299
:1008E000CE010E94D1036C816062CE010E94D103CF
:1008F00084E08D836CE0CE010E94D10361E0CE01E3
:100900000E94D1038BE39FE10197F1F782E08E8390
:1009100066E0CE010E94D103E881F9810084F1856F
:10092000E02D6FEFCE01DF91CF911F910F910994D0
:10093000089508950E940F096115710579F0FB0172
:1009400001900020E9F73197AF01461B570BDC01FE
:10095000ED91FC910280F381E02D099480E090E01C
:100960000895CF93DF93BC018EE592E00E949C0432
:10097000EC0166E971E08EE592E00E949C048C0F28
:100980009D1FDF91CF9108958F929F92AF92BF925A
:10099000CF92DF92EF92FF920F931F93CF93DF934B
:1009A000CDB7DEB7A1970FB6F894DEBF0FBECDBFAF
:1009B0006C01990FEE08FF08F7FE33C0E0915E026C
:1009C000F0915F020190F081E02D6DE28EE592E002
:1009D00009958C0122273327A9012C193D094E09BD
:1009E0005F0919A2CE0181967C019AE0892E912C93
:1009F000A12CB12CCA01B901A50194010E94E708FC
:100A0000605DF70162937F012115310541055105B4
:100A100089F7BF018EE592E00E949C04800F911F30
:100A20001FC0A701960119A28E010F5D1F4F8AE01A
:100A3000C82ED12CE12CF12CCA01B901A7019601D5
:100A40000E94E708605DF80162938F01211531056E
:100A50004105510589F7BF018EE592E00E949C0493
:100A6000A1960FB6F894DEBF0FBECDBFDF91CF9138
:100A70001F910F91FF90EF90DF90CF90BF90AF90BC
:100A80009F908F9008950C949C041F920F920FB624
:100A90000F9211242F933F934F935F936F937F9304
:100AA0008F939F93AF93BF93EF93FF938EE592E065
:100AB0000E940901FF91EF91BF91AF919F918F919A
:100AC0007F916F915F914F913F912F910F900FBE4A
:100AD0000F901F9018951F920F920FB60F9211242E
:100AE0002F938F939F93EF93FF93E0916E02F0917A
:100AF0006F028081E0917402F091750282FD12C054
:100B00009081809177028F5F8F7320917802821796
:100B100051F0E0917702F0E0E25AFD4F958F80931B
:100B2000770201C08081FF91EF919F918F912F916A
:100B30000F900FBE0F901F9018951F920F920FB637
:100B40000F9211242F933F938F939F93AF93BF9353
:100B50008091560290915702A0915802B09159028B
:100B60003091550223E0230F2D3720F40196A11D6B
:100B7000B11D05C026E8230F0296A11DB11D2093CB
:100B800055028093560290935702A0935802B09357
:100B9000590280915A0290915B02A0915C02B0913F
:100BA0005D020196A11DB11D80935A0290935B02D4
:100BB000A0935C02B0935D02BF91AF919F918F9122
:100BC0003F912F910F900FBE0F901F9018951F927D
:100BD0000F920FB60F9211242F933F934F935F9371
:100BE0006F937F938F939F93AF93BF93EF93FF93F5
:100BF0008091B900887F803609F49CC068F58832FE
:100C000009F45BC090F4803109F454C038F48823AF
:100C100009F4F6C0883009F44DC0F6C0883109F4F3
:100C20004CC0803209F45DC0EFC0803409F468C064
:100C300048F4803309F455C0883309F0E5C0809347
:100C40002E02D8C0803509F44FC0883509F45DC044
:100C5000883409F0D9C0D6C0883909F4C7C0A8F4CF
:100C6000883709F467C038F4883609F463C08037E0
:100C700009F460C0C9C0883809F4B8C0803909F4E3
:100C80005FC0803809F0C0C05BC0803B09F486C0FB
:100C900038F4803A09F466C0883A09F47FC0B4C0D9
:100CA000803C09F4A7C0883C09F4A4C0883B09F43F
:100CB0008AC0AAC08091540210C0909153028091C2
:100CC0005202981770F5E091530281E08E0F8093E5
:100CD0005302F0E0EE5CFD4F80818093BB0085EC19
:100CE00086C080932E028EC0E091530281E08E0F69
:100CF000809353028091BB00F0E0EE5CFD4F808357
:100D000090915302809152026EC0E091530281E0B3
:100D10008E0F809353028091BB00F0E0EE5CFD4F9C
:100D200080838091310281116DC081E08093300217
:100D300084EA61C083E080932F0210922D02CFCF0E
:100D400080912D02803208F051C0E0912D0281E0A7
:100D50008E0F80932D028091BB00F0E0E35FFD4F8A
:100D60008083BDCF85EC8093BC0010922F028091D0
:100D70002D02803230F4E0912D02F0E0E35FFD4F70
:100D8000108260912D0270E0E0910B02F0910C0254
:100D90008DE092E0099510922D0236C084E0809398
:100DA0002F0210920A0210920902E0910702F091BC
:100DB0000802099580910902811105C081E08093A4
:100DC00009021092E701E0910A0281E08E0F809300
:100DD0000A02F0E0E951FE4F80818093BB009091C0
:100DE0000A0280910902981708F479CF85E8809368
:100DF000BC000AC085EC8093BC0010922F0204C096
:100E000010922E020E94A602FF91EF91BF91AF9126
:100E10009F918F917F916F915F914F913F912F9112
:100E20000F900FBE0F901F9018951F93CF93DF93D5
:100E3000109261021092600288EE93E0A0E0B0E0B0
:100E40008093620290936302A0936402B093650260
:100E50002AE631E030935F0220935E0225EC30E019
:100E600030936B0220936A0224EC30E030936D02E1
:100E700020936C0220EC30E030936F0220936E02DE
:100E800021EC30E0309371022093700222EC30E0CC
:100E9000309373022093720226EC30E03093750297
:100EA00020937402109277021092780210927902C5
:100EB00010927A021092FE021092FD028093FF02BD
:100EC00090930003A0930103B09302038AE791E09B
:100ED0009093FC028093FB0210920A031092090384
:100EE0008AE891E0909308038093070388E0809359
:100EF00012038FEF8093130389E08093140384E03F
:100F00008093150385E08093160386E08093170392
:100F100087E0809318031092190310921A0310921D
:100F20001B0310921C03C5E1D3E01C2F1C5F8991A9
:100F30000E9487001C13FBCF809112030E94870040
:100F4000809113038F3F11F00E948700809114035A
:100F50000E94870010920B0360E0809112030E94B0
:100F60009D0160E0809114030E949D018091130314
:100F70008F3F19F060E00E949D018FEF80931D0369
:100F80001092110310921003DF91CF911F910895D9
:100F9000789484B5826084BD84B5816084BD85B554
:100FA000826085BD85B5816085BD80916E00816060
:100FB00080936E0010928100809181008260809306
:100FC0008100809181008160809381008091800008
:100FD0008160809380008091B10084608093B10033
:100FE0008091B00081608093B00080917A0084602D
:100FF00080937A0080917A00826080937A00809159
:101000007A00816080937A0080917A008068809372
:101010007A001092C10020E042E060E187E093E0B6
:101020000E94100469E971E087E093E00E944305A3
:1010300060E971E080E090E00E946C02E0916E0255
:10104000F0916F0282E08083E0916A02F0916B027E
:101050001082E0916C02F0916D028FEC808310920F
:101060007602E0917202F091730286E08083E09153
:101070007002F0917102808180618083E091700242
:10108000F0917102808188608083E0917002F0911C
:101090007102808180688083E0917002F09171021A
:1010A00080818F7D808385EA91E00E94B10468EEA3
:1010B00073E080E090E00E946C0280E00E94D9031F
:1010C00061EC71E087E093E00E94430581EC91E0E0
:1010D0000E94B10480E4C82E91E1D92EC0927C0018
:1010E00080917A00806480937A0080917A0086FDF6
:1010F000FCCFC091780080917900D0E0D82BC63821
:10110000D1059CF0C53321E0D20794F0C13E31E017
:10111000D3078CF0C23D82E0D80784F0CF3F23E0B4
:10112000D2077CF405E010E00EC001E010E00BC037
:1011300002E010E008C003E010E005C004E010E0A9
:1011400002C000E010E081E00E94D90361ED71E08F
:1011500087E093E00E94430581E00E94D903D09E7E
:10116000C001D19E900D11249C0120503F4F790168
:10117000B90187E093E00E94430562EE71E08EE5DD
:1011800092E00E944305CE010E94C40462EE71E029
:101190008EE592E00E944305C8010E94C40462EEFD
:1011A00071E08EE592E00E944305B7018EE592E082
:1011B0000E94430580EE91E00E94B10464EF71E06B
:1011C00080E090E00E946C020E94930187CFA1E230
:1011D0001A2EAA1BBB1BFD010DC0AA1FBB1FEE1FB1
:1011E000FF1FA217B307E407F50720F0A21BB30BFC
:1011F000E40BF50B661F771F881F991F1A9469F778
:1012000060957095809590959B01AC01BD01CF01D3
:101210000895EE0FFF1F0590F491E02D099481E0F1
:0C12200090E0F8940C941409F894FFCFAF
:10122C0020202020202020202020202020202020B2
:10123C000020524947485420204B6579204F4B20C1
:10124C00200020555020202020204B6579204F4B2A
:10125C0020200020444F574E2020204B6579204FF2
:10126C004B202000204C4546542020204B657920F3
:10127C004F4B2020002053454C454354204B65795F
:10128C00204F4B202000000000002A01A600F30094
:10129C00D100E500710100000000FA02E602DF0255
:1012AC00DC02D902D80200000000C603A60010041C
:1012BC007003460397030D0A004C4344205368699E
:1012CC00656C64200041726475696E6F202D20423C
:1012DC007574746F6E204C434420736869656C643C
:1012EC0000507265737320616E79204B4559202034
:1012FC000020202020202020202020202020202002
:06130C002000203A200041
:00000001FF
